{
  "_format": "hh-sol-artifact-1",
  "contractName": "NFTokenMetadataMock",
  "sourceName": "src/contracts/mocks/nf-token-metadata-mock.sol",
  "abi": [
    {
      "inputs": [
        {
          "internalType": "string",
          "name": "_name",
          "type": "string"
        },
        {
          "internalType": "string",
          "name": "_symbol",
          "type": "string"
        }
      ],
      "stateMutability": "nonpayable",
      "type": "constructor"
    },
    {
      "anonymous": false,
      "inputs": [
        {
          "indexed": true,
          "internalType": "address",
          "name": "_owner",
          "type": "address"
        },
        {
          "indexed": true,
          "internalType": "address",
          "name": "_approved",
          "type": "address"
        },
        {
          "indexed": true,
          "internalType": "uint256",
          "name": "_tokenId",
          "type": "uint256"
        }
      ],
      "name": "Approval",
      "type": "event"
    },
    {
      "anonymous": false,
      "inputs": [
        {
          "indexed": true,
          "internalType": "address",
          "name": "_owner",
          "type": "address"
        },
        {
          "indexed": true,
          "internalType": "address",
          "name": "_operator",
          "type": "address"
        },
        {
          "indexed": false,
          "internalType": "bool",
          "name": "_approved",
          "type": "bool"
        }
      ],
      "name": "ApprovalForAll",
      "type": "event"
    },
    {
      "anonymous": false,
      "inputs": [
        {
          "indexed": true,
          "internalType": "address",
          "name": "previousOwner",
          "type": "address"
        },
        {
          "indexed": true,
          "internalType": "address",
          "name": "newOwner",
          "type": "address"
        }
      ],
      "name": "OwnershipTransferred",
      "type": "event"
    },
    {
      "anonymous": false,
      "inputs": [
        {
          "indexed": true,
          "internalType": "address",
          "name": "_from",
          "type": "address"
        },
        {
          "indexed": true,
          "internalType": "address",
          "name": "_to",
          "type": "address"
        },
        {
          "indexed": true,
          "internalType": "uint256",
          "name": "_tokenId",
          "type": "uint256"
        }
      ],
      "name": "Transfer",
      "type": "event"
    },
    {
      "inputs": [],
      "name": "CANNOT_TRANSFER_TO_ZERO_ADDRESS",
      "outputs": [
        {
          "internalType": "string",
          "name": "",
          "type": "string"
        }
      ],
      "stateMutability": "view",
      "type": "function"
    },
    {
      "inputs": [],
      "name": "NOT_CURRENT_OWNER",
      "outputs": [
        {
          "internalType": "string",
          "name": "",
          "type": "string"
        }
      ],
      "stateMutability": "view",
      "type": "function"
    },
    {
      "inputs": [
        {
          "internalType": "address",
          "name": "_approved",
          "type": "address"
        },
        {
          "internalType": "uint256",
          "name": "_tokenId",
          "type": "uint256"
        }
      ],
      "name": "approve",
      "outputs": [],
      "stateMutability": "nonpayable",
      "type": "function"
    },
    {
      "inputs": [
        {
          "internalType": "address",
          "name": "_owner",
          "type": "address"
        }
      ],
      "name": "balanceOf",
      "outputs": [
        {
          "internalType": "uint256",
          "name": "",
          "type": "uint256"
        }
      ],
      "stateMutability": "view",
      "type": "function"
    },
    {
      "inputs": [
        {
          "internalType": "uint256",
          "name": "_tokenId",
          "type": "uint256"
        }
      ],
      "name": "burn",
      "outputs": [],
      "stateMutability": "nonpayable",
      "type": "function"
    },
    {
      "inputs": [
        {
          "internalType": "uint256",
          "name": "_tokenId",
          "type": "uint256"
        }
      ],
      "name": "getApproved",
      "outputs": [
        {
          "internalType": "address",
          "name": "",
          "type": "address"
        }
      ],
      "stateMutability": "view",
      "type": "function"
    },
    {
      "inputs": [
        {
          "internalType": "address",
          "name": "_owner",
          "type": "address"
        },
        {
          "internalType": "address",
          "name": "_operator",
          "type": "address"
        }
      ],
      "name": "isApprovedForAll",
      "outputs": [
        {
          "internalType": "bool",
          "name": "",
          "type": "bool"
        }
      ],
      "stateMutability": "view",
      "type": "function"
    },
    {
      "inputs": [
        {
          "internalType": "address",
          "name": "_to",
          "type": "address"
        },
        {
          "internalType": "uint256",
          "name": "_tokenId",
          "type": "uint256"
        },
        {
          "internalType": "string",
          "name": "_uri",
          "type": "string"
        }
      ],
      "name": "mint",
      "outputs": [],
      "stateMutability": "nonpayable",
      "type": "function"
    },
    {
      "inputs": [],
      "name": "name",
      "outputs": [
        {
          "internalType": "string",
          "name": "_name",
          "type": "string"
        }
      ],
      "stateMutability": "view",
      "type": "function"
    },
    {
      "inputs": [],
      "name": "owner",
      "outputs": [
        {
          "internalType": "address",
          "name": "",
          "type": "address"
        }
      ],
      "stateMutability": "view",
      "type": "function"
    },
    {
      "inputs": [
        {
          "internalType": "uint256",
          "name": "_tokenId",
          "type": "uint256"
        }
      ],
      "name": "ownerOf",
      "outputs": [
        {
          "internalType": "address",
          "name": "_owner",
          "type": "address"
        }
      ],
      "stateMutability": "view",
      "type": "function"
    },
    {
      "inputs": [
        {
          "internalType": "address",
          "name": "_from",
          "type": "address"
        },
        {
          "internalType": "address",
          "name": "_to",
          "type": "address"
        },
        {
          "internalType": "uint256",
          "name": "_tokenId",
          "type": "uint256"
        }
      ],
      "name": "safeTransferFrom",
      "outputs": [],
      "stateMutability": "nonpayable",
      "type": "function"
    },
    {
      "inputs": [
        {
          "internalType": "address",
          "name": "_from",
          "type": "address"
        },
        {
          "internalType": "address",
          "name": "_to",
          "type": "address"
        },
        {
          "internalType": "uint256",
          "name": "_tokenId",
          "type": "uint256"
        },
        {
          "internalType": "bytes",
          "name": "_data",
          "type": "bytes"
        }
      ],
      "name": "safeTransferFrom",
      "outputs": [],
      "stateMutability": "nonpayable",
      "type": "function"
    },
    {
      "inputs": [
        {
          "internalType": "address",
          "name": "_operator",
          "type": "address"
        },
        {
          "internalType": "bool",
          "name": "_approved",
          "type": "bool"
        }
      ],
      "name": "setApprovalForAll",
      "outputs": [],
      "stateMutability": "nonpayable",
      "type": "function"
    },
    {
      "inputs": [
        {
          "internalType": "bytes4",
          "name": "_interfaceID",
          "type": "bytes4"
        }
      ],
      "name": "supportsInterface",
      "outputs": [
        {
          "internalType": "bool",
          "name": "",
          "type": "bool"
        }
      ],
      "stateMutability": "view",
      "type": "function"
    },
    {
      "inputs": [],
      "name": "symbol",
      "outputs": [
        {
          "internalType": "string",
          "name": "_symbol",
          "type": "string"
        }
      ],
      "stateMutability": "view",
      "type": "function"
    },
    {
      "inputs": [
        {
          "internalType": "uint256",
          "name": "_tokenId",
          "type": "uint256"
        }
      ],
      "name": "tokenURI",
      "outputs": [
        {
          "internalType": "string",
          "name": "",
          "type": "string"
        }
      ],
      "stateMutability": "view",
      "type": "function"
    },
    {
      "inputs": [
        {
          "internalType": "address",
          "name": "_from",
          "type": "address"
        },
        {
          "internalType": "address",
          "name": "_to",
          "type": "address"
        },
        {
          "internalType": "uint256",
          "name": "_tokenId",
          "type": "uint256"
        }
      ],
      "name": "transferFrom",
      "outputs": [],
      "stateMutability": "nonpayable",
      "type": "function"
    },
    {
      "inputs": [
        {
          "internalType": "address",
          "name": "_newOwner",
          "type": "address"
        }
      ],
      "name": "transferOwnership",
      "outputs": [],
      "stateMutability": "nonpayable",
      "type": "function"
    }
  ],
  "bytecode": "0x60806040523480156200001157600080fd5b5060405162003543380380620035438339818101604052810190620000379190620003f2565b60016000806301ffc9a760e01b7bffffffffffffffffffffffffffffffffffffffffffffffffffffffff1916815260200190815260200160002060006101000a81548160ff02191690831515021790555060016000806380ac58cd60e01b7bffffffffffffffffffffffffffffffffffffffffffffffffffffffff1916815260200190815260200160002060006101000a81548160ff0219169083151502179055506001600080635b5e139f60e01b7bffffffffffffffffffffffffffffffffffffffffffffffffffffffff1916815260200190815260200160002060006101000a81548160ff02191690831515021790555033600860006101000a81548173ffffffffffffffffffffffffffffffffffffffff021916908373ffffffffffffffffffffffffffffffffffffffff160217905550816005908051906020019062000183929190620001a5565b5080600690805190602001906200019c929190620001a5565b505050620004dc565b828054620001b390620004a6565b90600052602060002090601f016020900481019282620001d7576000855562000223565b82601f10620001f257805160ff191683800117855562000223565b8280016001018555821562000223579182015b828111156200022257825182559160200191906001019062000205565b5b50905062000232919062000236565b5090565b5b808211156200025157600081600090555060010162000237565b5090565b6000604051905090565b600080fd5b600080fd5b600080fd5b600080fd5b6000601f19601f8301169050919050565b7f4e487b7100000000000000000000000000000000000000000000000000000000600052604160045260246000fd5b620002be8262000273565b810181811067ffffffffffffffff82111715620002e057620002df62000284565b5b80604052505050565b6000620002f562000255565b9050620003038282620002b3565b919050565b600067ffffffffffffffff82111562000326576200032562000284565b5b620003318262000273565b9050602081019050919050565b60005b838110156200035e57808201518184015260208101905062000341565b838111156200036e576000848401525b50505050565b60006200038b620003858462000308565b620002e9565b905082815260208101848484011115620003aa57620003a96200026e565b5b620003b78482856200033e565b509392505050565b600082601f830112620003d757620003d662000269565b5b8151620003e984826020860162000374565b91505092915050565b600080604083850312156200040c576200040b6200025f565b5b600083015167ffffffffffffffff8111156200042d576200042c62000264565b5b6200043b85828601620003bf565b925050602083015167ffffffffffffffff8111156200045f576200045e62000264565b5b6200046d85828601620003bf565b9150509250929050565b7f4e487b7100000000000000000000000000000000000000000000000000000000600052602260045260246000fd5b60006002820490506001821680620004bf57607f821691505b60208210811415620004d657620004d562000477565b5b50919050565b61305780620004ec6000396000f3fe608060405234801561001057600080fd5b50600436106101215760003560e01c8063860d248a116100ad578063c87b56dd11610071578063c87b56dd14610306578063d3fc986414610336578063e985e9c514610352578063f2fde38b14610382578063f3fe3bc31461039e57610121565b8063860d248a146102745780638da5cb5b1461029257806395d89b41146102b0578063a22cb465146102ce578063b88d4fde146102ea57610121565b806323b872dd116100f457806323b872dd146101c057806342842e0e146101dc57806342966c68146101f85780636352211e1461021457806370a082311461024457610121565b806301ffc9a71461012657806306fdde0314610156578063081812fc14610174578063095ea7b3146101a4575b600080fd5b610140600480360381019061013b91906128ce565b6103bc565b60405161014d9190612916565b60405180910390f35b61015e610423565b60405161016b91906129ca565b60405180910390f35b61018e60048036038101906101899190612a22565b6104b5565b60405161019b9190612a90565b60405180910390f35b6101be60048036038101906101b99190612ad7565b6105d0565b005b6101da60048036038101906101d59190612b17565b6109b3565b005b6101f660048036038101906101f19190612b17565b610e05565b005b610212600480360381019061020d9190612a22565b610e25565b005b61022e60048036038101906102299190612a22565b610efa565b60405161023b9190612a90565b60405180910390f35b61025e60048036038101906102599190612b6a565b610fe0565b60405161026b9190612ba6565b60405180910390f35b61027c61109a565b60405161028991906129ca565b60405180910390f35b61029a6110d3565b6040516102a79190612a90565b60405180910390f35b6102b86110f9565b6040516102c591906129ca565b60405180910390f35b6102e860048036038101906102e39190612bed565b61118b565b005b61030460048036038101906102ff9190612c92565b611288565b005b610320600480360381019061031b9190612a22565b6112df565b60405161032d91906129ca565b60405180910390f35b610350600480360381019061034b9190612d70565b6113cf565b005b61036c60048036038101906103679190612de4565b6114f6565b6040516103799190612916565b60405180910390f35b61039c60048036038101906103979190612b6a565b61158a565b005b6103a66117bc565b6040516103b391906129ca565b60405180910390f35b6000806000837bffffffffffffffffffffffffffffffffffffffffffffffffffffffff19167bffffffffffffffffffffffffffffffffffffffffffffffffffffffff1916815260200190815260200160002060009054906101000a900460ff169050919050565b60606005805461043290612e53565b80601f016020809104026020016040519081016040528092919081815260200182805461045e90612e53565b80156104ab5780601f10610480576101008083540402835291602001916104ab565b820191906000526020600020905b81548152906001019060200180831161048e57829003601f168201915b5050505050905090565b600081600073ffffffffffffffffffffffffffffffffffffffff166001600083815260200190815260200160002060009054906101000a900473ffffffffffffffffffffffffffffffffffffffff1673ffffffffffffffffffffffffffffffffffffffff1614156040518060400160405280600681526020017f303033303032000000000000000000000000000000000000000000000000000081525090610593576040517f08c379a000000000000000000000000000000000000000000000000000000000815260040161058a91906129ca565b60405180910390fd5b506002600084815260200190815260200160002060009054906101000a900473ffffffffffffffffffffffffffffffffffffffff16915050919050565b8060006001600083815260200190815260200160002060009054906101000a900473ffffffffffffffffffffffffffffffffffffffff1690503373ffffffffffffffffffffffffffffffffffffffff168173ffffffffffffffffffffffffffffffffffffffff1614806106c95750600460008273ffffffffffffffffffffffffffffffffffffffff1673ffffffffffffffffffffffffffffffffffffffff16815260200190815260200160002060003373ffffffffffffffffffffffffffffffffffffffff1673ffffffffffffffffffffffffffffffffffffffff16815260200190815260200160002060009054906101000a900460ff165b6040518060400160405280600681526020017f303033303033000000000000000000000000000000000000000000000000000081525090610740576040517f08c379a000000000000000000000000000000000000000000000000000000000815260040161073791906129ca565b60405180910390fd5b5082600073ffffffffffffffffffffffffffffffffffffffff166001600083815260200190815260200160002060009054906101000a900473ffffffffffffffffffffffffffffffffffffffff1673ffffffffffffffffffffffffffffffffffffffff1614156040518060400160405280600681526020017f30303330303200000000000000000000000000000000000000000000000000008152509061081d576040517f08c379a000000000000000000000000000000000000000000000000000000000815260040161081491906129ca565b60405180910390fd5b5060006001600086815260200190815260200160002060009054906101000a900473ffffffffffffffffffffffffffffffffffffffff1690508073ffffffffffffffffffffffffffffffffffffffff168673ffffffffffffffffffffffffffffffffffffffff1614156040518060400160405280600681526020017f3030333030380000000000000000000000000000000000000000000000000000815250906108fd576040517f08c379a00000000000000000000000000000000000000000000000000000000081526004016108f491906129ca565b60405180910390fd5b50856002600087815260200190815260200160002060006101000a81548173ffffffffffffffffffffffffffffffffffffffff021916908373ffffffffffffffffffffffffffffffffffffffff160217905550848673ffffffffffffffffffffffffffffffffffffffff168273ffffffffffffffffffffffffffffffffffffffff167f8c5be1e5ebec7d5bd14f71427d1e84f3dd0314c0f7b2291e5b200ac8c7c3b92560405160405180910390a4505050505050565b8060006001600083815260200190815260200160002060009054906101000a900473ffffffffffffffffffffffffffffffffffffffff1690503373ffffffffffffffffffffffffffffffffffffffff168173ffffffffffffffffffffffffffffffffffffffff161480610a8457503373ffffffffffffffffffffffffffffffffffffffff166002600084815260200190815260200160002060009054906101000a900473ffffffffffffffffffffffffffffffffffffffff1673ffffffffffffffffffffffffffffffffffffffff16145b80610b155750600460008273ffffffffffffffffffffffffffffffffffffffff1673ffffffffffffffffffffffffffffffffffffffff16815260200190815260200160002060003373ffffffffffffffffffffffffffffffffffffffff1673ffffffffffffffffffffffffffffffffffffffff16815260200190815260200160002060009054906101000a900460ff165b6040518060400160405280600681526020017f303033303034000000000000000000000000000000000000000000000000000081525090610b8c576040517f08c379a0000000000000000000000000000000000000000000000000000000008152600401610b8391906129ca565b60405180910390fd5b5082600073ffffffffffffffffffffffffffffffffffffffff166001600083815260200190815260200160002060009054906101000a900473ffffffffffffffffffffffffffffffffffffffff1673ffffffffffffffffffffffffffffffffffffffff1614156040518060400160405280600681526020017f303033303032000000000000000000000000000000000000000000000000000081525090610c69576040517f08c379a0000000000000000000000000000000000000000000000000000000008152600401610c6091906129ca565b60405180910390fd5b5060006001600086815260200190815260200160002060009054906101000a900473ffffffffffffffffffffffffffffffffffffffff1690508673ffffffffffffffffffffffffffffffffffffffff168173ffffffffffffffffffffffffffffffffffffffff16146040518060400160405280600681526020017f303033303037000000000000000000000000000000000000000000000000000081525090610d48576040517f08c379a0000000000000000000000000000000000000000000000000000000008152600401610d3f91906129ca565b60405180910390fd5b50600073ffffffffffffffffffffffffffffffffffffffff168673ffffffffffffffffffffffffffffffffffffffff1614156040518060400160405280600681526020017f303033303031000000000000000000000000000000000000000000000000000081525090610df1576040517f08c379a0000000000000000000000000000000000000000000000000000000008152600401610de891906129ca565b60405180910390fd5b50610dfc86866117f5565b50505050505050565b610e20838383604051806020016040528060008152506118aa565b505050565b600860009054906101000a900473ffffffffffffffffffffffffffffffffffffffff1673ffffffffffffffffffffffffffffffffffffffff163373ffffffffffffffffffffffffffffffffffffffff16146040518060400160405280600681526020017f303138303031000000000000000000000000000000000000000000000000000081525090610eed576040517f08c379a0000000000000000000000000000000000000000000000000000000008152600401610ee491906129ca565b60405180910390fd5b50610ef781611e78565b50565b60006001600083815260200190815260200160002060009054906101000a900473ffffffffffffffffffffffffffffffffffffffff169050600073ffffffffffffffffffffffffffffffffffffffff168173ffffffffffffffffffffffffffffffffffffffff1614156040518060400160405280600681526020017f303033303032000000000000000000000000000000000000000000000000000081525090610fda576040517f08c379a0000000000000000000000000000000000000000000000000000000008152600401610fd191906129ca565b60405180910390fd5b50919050565b60008073ffffffffffffffffffffffffffffffffffffffff168273ffffffffffffffffffffffffffffffffffffffff1614156040518060400160405280600681526020017f303033303031000000000000000000000000000000000000000000000000000081525090611089576040517f08c379a000000000000000000000000000000000000000000000000000000000815260040161108091906129ca565b60405180910390fd5b5061109382611ea3565b9050919050565b6040518060400160405280600681526020017f303138303032000000000000000000000000000000000000000000000000000081525081565b600860009054906101000a900473ffffffffffffffffffffffffffffffffffffffff1681565b60606006805461110890612e53565b80601f016020809104026020016040519081016040528092919081815260200182805461113490612e53565b80156111815780601f1061115657610100808354040283529160200191611181565b820191906000526020600020905b81548152906001019060200180831161116457829003601f168201915b5050505050905090565b80600460003373ffffffffffffffffffffffffffffffffffffffff1673ffffffffffffffffffffffffffffffffffffffff16815260200190815260200160002060008473ffffffffffffffffffffffffffffffffffffffff1673ffffffffffffffffffffffffffffffffffffffff16815260200190815260200160002060006101000a81548160ff0219169083151502179055508173ffffffffffffffffffffffffffffffffffffffff163373ffffffffffffffffffffffffffffffffffffffff167f17307eab39ab6107e8899845ad3d59bd9653f200f220920489ca2b5937696c318360405161127c9190612916565b60405180910390a35050565b6112d885858585858080601f016020809104026020016040519081016040528093929190818152602001838380828437600081840152601f19601f820116905080830192505050505050506118aa565b5050505050565b606081600073ffffffffffffffffffffffffffffffffffffffff166001600083815260200190815260200160002060009054906101000a900473ffffffffffffffffffffffffffffffffffffffff1673ffffffffffffffffffffffffffffffffffffffff1614156040518060400160405280600681526020017f3030333030320000000000000000000000000000000000000000000000000000815250906113bd576040517f08c379a00000000000000000000000000000000000000000000000000000000081526004016113b491906129ca565b60405180910390fd5b506113c783611eec565b915050919050565b600860009054906101000a900473ffffffffffffffffffffffffffffffffffffffff1673ffffffffffffffffffffffffffffffffffffffff163373ffffffffffffffffffffffffffffffffffffffff16146040518060400160405280600681526020017f303138303031000000000000000000000000000000000000000000000000000081525090611497576040517f08c379a000000000000000000000000000000000000000000000000000000000815260040161148e91906129ca565b60405180910390fd5b506114a28484611f91565b6114f08383838080601f016020809104026020016040519081016040528093929190818152602001838380828437600081840152601f19601f8201169050808301925050505050505061217f565b50505050565b6000600460008473ffffffffffffffffffffffffffffffffffffffff1673ffffffffffffffffffffffffffffffffffffffff16815260200190815260200160002060008373ffffffffffffffffffffffffffffffffffffffff1673ffffffffffffffffffffffffffffffffffffffff16815260200190815260200160002060009054906101000a900460ff16905092915050565b600860009054906101000a900473ffffffffffffffffffffffffffffffffffffffff1673ffffffffffffffffffffffffffffffffffffffff163373ffffffffffffffffffffffffffffffffffffffff16146040518060400160405280600681526020017f303138303031000000000000000000000000000000000000000000000000000081525090611652576040517f08c379a000000000000000000000000000000000000000000000000000000000815260040161164991906129ca565b60405180910390fd5b50600073ffffffffffffffffffffffffffffffffffffffff168173ffffffffffffffffffffffffffffffffffffffff1614156040518060400160405280600681526020017f3031383030320000000000000000000000000000000000000000000000000000815250906116fb576040517f08c379a00000000000000000000000000000000000000000000000000000000081526004016116f291906129ca565b60405180910390fd5b508073ffffffffffffffffffffffffffffffffffffffff16600860009054906101000a900473ffffffffffffffffffffffffffffffffffffffff1673ffffffffffffffffffffffffffffffffffffffff167f8be0079c531659141344cd1fd0a4f28419497f9722a3daafe3b4186f6b6457e060405160405180910390a380600860006101000a81548173ffffffffffffffffffffffffffffffffffffffff021916908373ffffffffffffffffffffffffffffffffffffffff16021790555050565b6040518060400160405280600681526020017f303138303031000000000000000000000000000000000000000000000000000081525081565b60006001600083815260200190815260200160002060009054906101000a900473ffffffffffffffffffffffffffffffffffffffff16905061183682612289565b61184081836122c2565b61184a838361242d565b818373ffffffffffffffffffffffffffffffffffffffff168273ffffffffffffffffffffffffffffffffffffffff167fddf252ad1be2c89b69c2b068fc378daa952ba7f163c4a11628f55a4df523b3ef60405160405180910390a4505050565b8160006001600083815260200190815260200160002060009054906101000a900473ffffffffffffffffffffffffffffffffffffffff1690503373ffffffffffffffffffffffffffffffffffffffff168173ffffffffffffffffffffffffffffffffffffffff16148061197b57503373ffffffffffffffffffffffffffffffffffffffff166002600084815260200190815260200160002060009054906101000a900473ffffffffffffffffffffffffffffffffffffffff1673ffffffffffffffffffffffffffffffffffffffff16145b80611a0c5750600460008273ffffffffffffffffffffffffffffffffffffffff1673ffffffffffffffffffffffffffffffffffffffff16815260200190815260200160002060003373ffffffffffffffffffffffffffffffffffffffff1673ffffffffffffffffffffffffffffffffffffffff16815260200190815260200160002060009054906101000a900460ff165b6040518060400160405280600681526020017f303033303034000000000000000000000000000000000000000000000000000081525090611a83576040517f08c379a0000000000000000000000000000000000000000000000000000000008152600401611a7a91906129ca565b60405180910390fd5b5083600073ffffffffffffffffffffffffffffffffffffffff166001600083815260200190815260200160002060009054906101000a900473ffffffffffffffffffffffffffffffffffffffff1673ffffffffffffffffffffffffffffffffffffffff1614156040518060400160405280600681526020017f303033303032000000000000000000000000000000000000000000000000000081525090611b60576040517f08c379a0000000000000000000000000000000000000000000000000000000008152600401611b5791906129ca565b60405180910390fd5b5060006001600087815260200190815260200160002060009054906101000a900473ffffffffffffffffffffffffffffffffffffffff1690508773ffffffffffffffffffffffffffffffffffffffff168173ffffffffffffffffffffffffffffffffffffffff16146040518060400160405280600681526020017f303033303037000000000000000000000000000000000000000000000000000081525090611c3f576040517f08c379a0000000000000000000000000000000000000000000000000000000008152600401611c3691906129ca565b60405180910390fd5b50600073ffffffffffffffffffffffffffffffffffffffff168773ffffffffffffffffffffffffffffffffffffffff1614156040518060400160405280600681526020017f303033303031000000000000000000000000000000000000000000000000000081525090611ce8576040517f08c379a0000000000000000000000000000000000000000000000000000000008152600401611cdf91906129ca565b60405180910390fd5b50611cf387876117f5565b611d128773ffffffffffffffffffffffffffffffffffffffff166125b5565b15611e6e5760008773ffffffffffffffffffffffffffffffffffffffff1663150b7a02338b8a8a6040518563ffffffff1660e01b8152600401611d589493929190612eda565b602060405180830381600087803b158015611d7257600080fd5b505af1158015611d86573d6000803e3d6000fd5b505050506040513d601f19601f82011682018060405250810190611daa9190612f3b565b905063150b7a0260e01b7bffffffffffffffffffffffffffffffffffffffffffffffffffffffff1916817bffffffffffffffffffffffffffffffffffffffffffffffffffffffff1916146040518060400160405280600681526020017f303033303035000000000000000000000000000000000000000000000000000081525090611e6b576040517f08c379a0000000000000000000000000000000000000000000000000000000008152600401611e6291906129ca565b60405180910390fd5b50505b5050505050505050565b611e8181612600565b600760008281526020019081526020016000206000611ea09190612789565b50565b6000600360008373ffffffffffffffffffffffffffffffffffffffff1673ffffffffffffffffffffffffffffffffffffffff168152602001908152602001600020549050919050565b6060600760008381526020019081526020016000208054611f0c90612e53565b80601f0160208091040260200160405190810160405280929190818152602001828054611f3890612e53565b8015611f855780601f10611f5a57610100808354040283529160200191611f85565b820191906000526020600020905b815481529060010190602001808311611f6857829003601f168201915b50505050509050919050565b600073ffffffffffffffffffffffffffffffffffffffff168273ffffffffffffffffffffffffffffffffffffffff1614156040518060400160405280600681526020017f303033303031000000000000000000000000000000000000000000000000000081525090612039576040517f08c379a000000000000000000000000000000000000000000000000000000000815260040161203091906129ca565b60405180910390fd5b50600073ffffffffffffffffffffffffffffffffffffffff166001600083815260200190815260200160002060009054906101000a900473ffffffffffffffffffffffffffffffffffffffff1673ffffffffffffffffffffffffffffffffffffffff16146040518060400160405280600681526020017f303033303036000000000000000000000000000000000000000000000000000081525090612114576040517f08c379a000000000000000000000000000000000000000000000000000000000815260040161210b91906129ca565b60405180910390fd5b5061211f828261242d565b808273ffffffffffffffffffffffffffffffffffffffff16600073ffffffffffffffffffffffffffffffffffffffff167fddf252ad1be2c89b69c2b068fc378daa952ba7f163c4a11628f55a4df523b3ef60405160405180910390a45050565b81600073ffffffffffffffffffffffffffffffffffffffff166001600083815260200190815260200160002060009054906101000a900473ffffffffffffffffffffffffffffffffffffffff1673ffffffffffffffffffffffffffffffffffffffff1614156040518060400160405280600681526020017f30303330303200000000000000000000000000000000000000000000000000008152509061225b576040517f08c379a000000000000000000000000000000000000000000000000000000000815260040161225291906129ca565b60405180910390fd5b50816007600085815260200190815260200160002090805190602001906122839291906127c9565b50505050565b6002600082815260200190815260200160002060006101000a81549073ffffffffffffffffffffffffffffffffffffffff021916905550565b8173ffffffffffffffffffffffffffffffffffffffff166001600083815260200190815260200160002060009054906101000a900473ffffffffffffffffffffffffffffffffffffffff1673ffffffffffffffffffffffffffffffffffffffff16146040518060400160405280600681526020017f30303330303700000000000000000000000000000000000000000000000000008152509061239b576040517f08c379a000000000000000000000000000000000000000000000000000000000815260040161239291906129ca565b60405180910390fd5b506001600360008473ffffffffffffffffffffffffffffffffffffffff1673ffffffffffffffffffffffffffffffffffffffff16815260200190815260200160002060008282546123ec9190612f97565b925050819055506001600082815260200190815260200160002060006101000a81549073ffffffffffffffffffffffffffffffffffffffff02191690555050565b600073ffffffffffffffffffffffffffffffffffffffff166001600083815260200190815260200160002060009054906101000a900473ffffffffffffffffffffffffffffffffffffffff1673ffffffffffffffffffffffffffffffffffffffff16146040518060400160405280600681526020017f303033303036000000000000000000000000000000000000000000000000000081525090612507576040517f08c379a00000000000000000000000000000000000000000000000000000000081526004016124fe91906129ca565b60405180910390fd5b50816001600083815260200190815260200160002060006101000a81548173ffffffffffffffffffffffffffffffffffffffff021916908373ffffffffffffffffffffffffffffffffffffffff1602179055506001600360008473ffffffffffffffffffffffffffffffffffffffff1673ffffffffffffffffffffffffffffffffffffffff16815260200190815260200160002060008282546125aa9190612fcb565b925050819055505050565b60008060007fc5d2460186f7233c927e7db2dcc703c0e500b653ca82273b7bfad8045d85a47060001b9050833f91506000801b82141580156125f75750808214155b92505050919050565b80600073ffffffffffffffffffffffffffffffffffffffff166001600083815260200190815260200160002060009054906101000a900473ffffffffffffffffffffffffffffffffffffffff1673ffffffffffffffffffffffffffffffffffffffff1614156040518060400160405280600681526020017f3030333030320000000000000000000000000000000000000000000000000000815250906126dc576040517f08c379a00000000000000000000000000000000000000000000000000000000081526004016126d391906129ca565b60405180910390fd5b5060006001600084815260200190815260200160002060009054906101000a900473ffffffffffffffffffffffffffffffffffffffff16905061271e83612289565b61272881846122c2565b82600073ffffffffffffffffffffffffffffffffffffffff168273ffffffffffffffffffffffffffffffffffffffff167fddf252ad1be2c89b69c2b068fc378daa952ba7f163c4a11628f55a4df523b3ef60405160405180910390a4505050565b50805461279590612e53565b6000825580601f106127a757506127c6565b601f0160209004906000526020600020908101906127c5919061284f565b5b50565b8280546127d590612e53565b90600052602060002090601f0160209004810192826127f7576000855561283e565b82601f1061281057805160ff191683800117855561283e565b8280016001018555821561283e579182015b8281111561283d578251825591602001919060010190612822565b5b50905061284b919061284f565b5090565b5b80821115612868576000816000905550600101612850565b5090565b600080fd5b600080fd5b60007fffffffff0000000000000000000000000000000000000000000000000000000082169050919050565b6128ab81612876565b81146128b657600080fd5b50565b6000813590506128c8816128a2565b92915050565b6000602082840312156128e4576128e361286c565b5b60006128f2848285016128b9565b91505092915050565b60008115159050919050565b612910816128fb565b82525050565b600060208201905061292b6000830184612907565b92915050565b600081519050919050565b600082825260208201905092915050565b60005b8381101561296b578082015181840152602081019050612950565b8381111561297a576000848401525b50505050565b6000601f19601f8301169050919050565b600061299c82612931565b6129a6818561293c565b93506129b681856020860161294d565b6129bf81612980565b840191505092915050565b600060208201905081810360008301526129e48184612991565b905092915050565b6000819050919050565b6129ff816129ec565b8114612a0a57600080fd5b50565b600081359050612a1c816129f6565b92915050565b600060208284031215612a3857612a3761286c565b5b6000612a4684828501612a0d565b91505092915050565b600073ffffffffffffffffffffffffffffffffffffffff82169050919050565b6000612a7a82612a4f565b9050919050565b612a8a81612a6f565b82525050565b6000602082019050612aa56000830184612a81565b92915050565b612ab481612a6f565b8114612abf57600080fd5b50565b600081359050612ad181612aab565b92915050565b60008060408385031215612aee57612aed61286c565b5b6000612afc85828601612ac2565b9250506020612b0d85828601612a0d565b9150509250929050565b600080600060608486031215612b3057612b2f61286c565b5b6000612b3e86828701612ac2565b9350506020612b4f86828701612ac2565b9250506040612b6086828701612a0d565b9150509250925092565b600060208284031215612b8057612b7f61286c565b5b6000612b8e84828501612ac2565b91505092915050565b612ba0816129ec565b82525050565b6000602082019050612bbb6000830184612b97565b92915050565b612bca816128fb565b8114612bd557600080fd5b50565b600081359050612be781612bc1565b92915050565b60008060408385031215612c0457612c0361286c565b5b6000612c1285828601612ac2565b9250506020612c2385828601612bd8565b9150509250929050565b600080fd5b600080fd5b600080fd5b60008083601f840112612c5257612c51612c2d565b5b8235905067ffffffffffffffff811115612c6f57612c6e612c32565b5b602083019150836001820283011115612c8b57612c8a612c37565b5b9250929050565b600080600080600060808688031215612cae57612cad61286c565b5b6000612cbc88828901612ac2565b9550506020612ccd88828901612ac2565b9450506040612cde88828901612a0d565b935050606086013567ffffffffffffffff811115612cff57612cfe612871565b5b612d0b88828901612c3c565b92509250509295509295909350565b60008083601f840112612d3057612d2f612c2d565b5b8235905067ffffffffffffffff811115612d4d57612d4c612c32565b5b602083019150836001820283011115612d6957612d68612c37565b5b9250929050565b60008060008060608587031215612d8a57612d8961286c565b5b6000612d9887828801612ac2565b9450506020612da987828801612a0d565b935050604085013567ffffffffffffffff811115612dca57612dc9612871565b5b612dd687828801612d1a565b925092505092959194509250565b60008060408385031215612dfb57612dfa61286c565b5b6000612e0985828601612ac2565b9250506020612e1a85828601612ac2565b9150509250929050565b7f4e487b7100000000000000000000000000000000000000000000000000000000600052602260045260246000fd5b60006002820490506001821680612e6b57607f821691505b60208210811415612e7f57612e7e612e24565b5b50919050565b600081519050919050565b600082825260208201905092915050565b6000612eac82612e85565b612eb68185612e90565b9350612ec681856020860161294d565b612ecf81612980565b840191505092915050565b6000608082019050612eef6000830187612a81565b612efc6020830186612a81565b612f096040830185612b97565b8181036060830152612f1b8184612ea1565b905095945050505050565b600081519050612f35816128a2565b92915050565b600060208284031215612f5157612f5061286c565b5b6000612f5f84828501612f26565b91505092915050565b7f4e487b7100000000000000000000000000000000000000000000000000000000600052601160045260246000fd5b6000612fa2826129ec565b9150612fad836129ec565b925082821015612fc057612fbf612f68565b5b828203905092915050565b6000612fd6826129ec565b9150612fe1836129ec565b9250827fffffffffffffffffffffffffffffffffffffffffffffffffffffffffffffffff0382111561301657613015612f68565b5b82820190509291505056fea26469706673582212200f7cc8add64beed0aa292e9af87dd1064b9c960efadb3f78f4fe379704c9c3e264736f6c63430008090033",
  "linkReferences": {},
  "deployedLinkReferences": {}
}