{
  "_format": "hh-sol-artifact-1",
  "contractName": "NFTokenMetadataTestMock",
  "sourceName": "src/tests/mocks/nf-token-metadata-test-mock.sol",
  "abi": [
    {
      "inputs": [
        {
          "internalType": "string",
          "name": "_name",
          "type": "string"
        },
        {
          "internalType": "string",
          "name": "_symbol",
          "type": "string"
        }
      ],
      "stateMutability": "nonpayable",
      "type": "constructor"
    },
    {
      "anonymous": false,
      "inputs": [
        {
          "indexed": true,
          "internalType": "address",
          "name": "_owner",
          "type": "address"
        },
        {
          "indexed": true,
          "internalType": "address",
          "name": "_approved",
          "type": "address"
        },
        {
          "indexed": true,
          "internalType": "uint256",
          "name": "_tokenId",
          "type": "uint256"
        }
      ],
      "name": "Approval",
      "type": "event"
    },
    {
      "anonymous": false,
      "inputs": [
        {
          "indexed": true,
          "internalType": "address",
          "name": "_owner",
          "type": "address"
        },
        {
          "indexed": true,
          "internalType": "address",
          "name": "_operator",
          "type": "address"
        },
        {
          "indexed": false,
          "internalType": "bool",
          "name": "_approved",
          "type": "bool"
        }
      ],
      "name": "ApprovalForAll",
      "type": "event"
    },
    {
      "anonymous": false,
      "inputs": [
        {
          "indexed": true,
          "internalType": "address",
          "name": "previousOwner",
          "type": "address"
        },
        {
          "indexed": true,
          "internalType": "address",
          "name": "newOwner",
          "type": "address"
        }
      ],
      "name": "OwnershipTransferred",
      "type": "event"
    },
    {
      "anonymous": false,
      "inputs": [
        {
          "indexed": true,
          "internalType": "address",
          "name": "_from",
          "type": "address"
        },
        {
          "indexed": true,
          "internalType": "address",
          "name": "_to",
          "type": "address"
        },
        {
          "indexed": true,
          "internalType": "uint256",
          "name": "_tokenId",
          "type": "uint256"
        }
      ],
      "name": "Transfer",
      "type": "event"
    },
    {
      "inputs": [],
      "name": "CANNOT_TRANSFER_TO_ZERO_ADDRESS",
      "outputs": [
        {
          "internalType": "string",
          "name": "",
          "type": "string"
        }
      ],
      "stateMutability": "view",
      "type": "function"
    },
    {
      "inputs": [],
      "name": "NOT_CURRENT_OWNER",
      "outputs": [
        {
          "internalType": "string",
          "name": "",
          "type": "string"
        }
      ],
      "stateMutability": "view",
      "type": "function"
    },
    {
      "inputs": [
        {
          "internalType": "address",
          "name": "_approved",
          "type": "address"
        },
        {
          "internalType": "uint256",
          "name": "_tokenId",
          "type": "uint256"
        }
      ],
      "name": "approve",
      "outputs": [],
      "stateMutability": "nonpayable",
      "type": "function"
    },
    {
      "inputs": [
        {
          "internalType": "address",
          "name": "_owner",
          "type": "address"
        }
      ],
      "name": "balanceOf",
      "outputs": [
        {
          "internalType": "uint256",
          "name": "",
          "type": "uint256"
        }
      ],
      "stateMutability": "view",
      "type": "function"
    },
    {
      "inputs": [
        {
          "internalType": "uint256",
          "name": "_tokenId",
          "type": "uint256"
        }
      ],
      "name": "burn",
      "outputs": [],
      "stateMutability": "nonpayable",
      "type": "function"
    },
    {
      "inputs": [
        {
          "internalType": "uint256",
          "name": "_tokenId",
          "type": "uint256"
        }
      ],
      "name": "checkUri",
      "outputs": [
        {
          "internalType": "string",
          "name": "",
          "type": "string"
        }
      ],
      "stateMutability": "view",
      "type": "function"
    },
    {
      "inputs": [
        {
          "internalType": "uint256",
          "name": "_tokenId",
          "type": "uint256"
        }
      ],
      "name": "getApproved",
      "outputs": [
        {
          "internalType": "address",
          "name": "",
          "type": "address"
        }
      ],
      "stateMutability": "view",
      "type": "function"
    },
    {
      "inputs": [
        {
          "internalType": "address",
          "name": "_owner",
          "type": "address"
        },
        {
          "internalType": "address",
          "name": "_operator",
          "type": "address"
        }
      ],
      "name": "isApprovedForAll",
      "outputs": [
        {
          "internalType": "bool",
          "name": "",
          "type": "bool"
        }
      ],
      "stateMutability": "view",
      "type": "function"
    },
    {
      "inputs": [
        {
          "internalType": "address",
          "name": "_to",
          "type": "address"
        },
        {
          "internalType": "uint256",
          "name": "_tokenId",
          "type": "uint256"
        },
        {
          "internalType": "string",
          "name": "_uri",
          "type": "string"
        }
      ],
      "name": "mint",
      "outputs": [],
      "stateMutability": "nonpayable",
      "type": "function"
    },
    {
      "inputs": [],
      "name": "name",
      "outputs": [
        {
          "internalType": "string",
          "name": "_name",
          "type": "string"
        }
      ],
      "stateMutability": "view",
      "type": "function"
    },
    {
      "inputs": [],
      "name": "owner",
      "outputs": [
        {
          "internalType": "address",
          "name": "",
          "type": "address"
        }
      ],
      "stateMutability": "view",
      "type": "function"
    },
    {
      "inputs": [
        {
          "internalType": "uint256",
          "name": "_tokenId",
          "type": "uint256"
        }
      ],
      "name": "ownerOf",
      "outputs": [
        {
          "internalType": "address",
          "name": "_owner",
          "type": "address"
        }
      ],
      "stateMutability": "view",
      "type": "function"
    },
    {
      "inputs": [
        {
          "internalType": "address",
          "name": "_from",
          "type": "address"
        },
        {
          "internalType": "address",
          "name": "_to",
          "type": "address"
        },
        {
          "internalType": "uint256",
          "name": "_tokenId",
          "type": "uint256"
        }
      ],
      "name": "safeTransferFrom",
      "outputs": [],
      "stateMutability": "nonpayable",
      "type": "function"
    },
    {
      "inputs": [
        {
          "internalType": "address",
          "name": "_from",
          "type": "address"
        },
        {
          "internalType": "address",
          "name": "_to",
          "type": "address"
        },
        {
          "internalType": "uint256",
          "name": "_tokenId",
          "type": "uint256"
        },
        {
          "internalType": "bytes",
          "name": "_data",
          "type": "bytes"
        }
      ],
      "name": "safeTransferFrom",
      "outputs": [],
      "stateMutability": "nonpayable",
      "type": "function"
    },
    {
      "inputs": [
        {
          "internalType": "address",
          "name": "_operator",
          "type": "address"
        },
        {
          "internalType": "bool",
          "name": "_approved",
          "type": "bool"
        }
      ],
      "name": "setApprovalForAll",
      "outputs": [],
      "stateMutability": "nonpayable",
      "type": "function"
    },
    {
      "inputs": [
        {
          "internalType": "bytes4",
          "name": "_interfaceID",
          "type": "bytes4"
        }
      ],
      "name": "supportsInterface",
      "outputs": [
        {
          "internalType": "bool",
          "name": "",
          "type": "bool"
        }
      ],
      "stateMutability": "view",
      "type": "function"
    },
    {
      "inputs": [],
      "name": "symbol",
      "outputs": [
        {
          "internalType": "string",
          "name": "_symbol",
          "type": "string"
        }
      ],
      "stateMutability": "view",
      "type": "function"
    },
    {
      "inputs": [
        {
          "internalType": "uint256",
          "name": "_tokenId",
          "type": "uint256"
        }
      ],
      "name": "tokenURI",
      "outputs": [
        {
          "internalType": "string",
          "name": "",
          "type": "string"
        }
      ],
      "stateMutability": "view",
      "type": "function"
    },
    {
      "inputs": [
        {
          "internalType": "address",
          "name": "_from",
          "type": "address"
        },
        {
          "internalType": "address",
          "name": "_to",
          "type": "address"
        },
        {
          "internalType": "uint256",
          "name": "_tokenId",
          "type": "uint256"
        }
      ],
      "name": "transferFrom",
      "outputs": [],
      "stateMutability": "nonpayable",
      "type": "function"
    },
    {
      "inputs": [
        {
          "internalType": "address",
          "name": "_newOwner",
          "type": "address"
        }
      ],
      "name": "transferOwnership",
      "outputs": [],
      "stateMutability": "nonpayable",
      "type": "function"
    }
  ],
  "bytecode": "0x60806040523480156200001157600080fd5b5060405162003627380380620036278339818101604052810190620000379190620003f6565b818160016000806301ffc9a760e01b7bffffffffffffffffffffffffffffffffffffffffffffffffffffffff1916815260200190815260200160002060006101000a81548160ff02191690831515021790555060016000806380ac58cd60e01b7bffffffffffffffffffffffffffffffffffffffffffffffffffffffff1916815260200190815260200160002060006101000a81548160ff0219169083151502179055506001600080635b5e139f60e01b7bffffffffffffffffffffffffffffffffffffffffffffffffffffffff1916815260200190815260200160002060006101000a81548160ff02191690831515021790555033600860006101000a81548173ffffffffffffffffffffffffffffffffffffffff021916908373ffffffffffffffffffffffffffffffffffffffff160217905550816005908051906020019062000185929190620001a9565b5080600690805190602001906200019e929190620001a9565b5050505050620004e0565b828054620001b790620004aa565b90600052602060002090601f016020900481019282620001db576000855562000227565b82601f10620001f657805160ff191683800117855562000227565b8280016001018555821562000227579182015b828111156200022657825182559160200191906001019062000209565b5b5090506200023691906200023a565b5090565b5b80821115620002555760008160009055506001016200023b565b5090565b6000604051905090565b600080fd5b600080fd5b600080fd5b600080fd5b6000601f19601f8301169050919050565b7f4e487b7100000000000000000000000000000000000000000000000000000000600052604160045260246000fd5b620002c28262000277565b810181811067ffffffffffffffff82111715620002e457620002e362000288565b5b80604052505050565b6000620002f962000259565b9050620003078282620002b7565b919050565b600067ffffffffffffffff8211156200032a576200032962000288565b5b620003358262000277565b9050602081019050919050565b60005b838110156200036257808201518184015260208101905062000345565b8381111562000372576000848401525b50505050565b60006200038f62000389846200030c565b620002ed565b905082815260208101848484011115620003ae57620003ad62000272565b5b620003bb84828562000342565b509392505050565b600082601f830112620003db57620003da6200026d565b5b8151620003ed84826020860162000378565b91505092915050565b6000806040838503121562000410576200040f62000263565b5b600083015167ffffffffffffffff81111562000431576200043062000268565b5b6200043f85828601620003c3565b925050602083015167ffffffffffffffff81111562000463576200046262000268565b5b6200047185828601620003c3565b9150509250929050565b7f4e487b7100000000000000000000000000000000000000000000000000000000600052602260045260246000fd5b60006002820490506001821680620004c357607f821691505b60208210811415620004da57620004d96200047b565b5b50919050565b61313780620004f06000396000f3fe608060405234801561001057600080fd5b506004361061012c5760003560e01c80638da5cb5b116100ad578063d08eb73211610071578063d08eb73214610341578063d3fc986414610371578063e985e9c51461038d578063f2fde38b146103bd578063f3fe3bc3146103d95761012c565b80638da5cb5b1461029d57806395d89b41146102bb578063a22cb465146102d9578063b88d4fde146102f5578063c87b56dd146103115761012c565b806342842e0e116100f457806342842e0e146101e757806342966c68146102035780636352211e1461021f57806370a082311461024f578063860d248a1461027f5761012c565b806301ffc9a71461013157806306fdde0314610161578063081812fc1461017f578063095ea7b3146101af57806323b872dd146101cb575b600080fd5b61014b600480360381019061014691906129ae565b6103f7565b60405161015891906129f6565b60405180910390f35b61016961045e565b6040516101769190612aaa565b60405180910390f35b61019960048036038101906101949190612b02565b6104f0565b6040516101a69190612b70565b60405180910390f35b6101c960048036038101906101c49190612bb7565b61060b565b005b6101e560048036038101906101e09190612bf7565b6109ee565b005b61020160048036038101906101fc9190612bf7565b610e40565b005b61021d60048036038101906102189190612b02565b610e60565b005b61023960048036038101906102349190612b02565b610f35565b6040516102469190612b70565b60405180910390f35b61026960048036038101906102649190612c4a565b61101b565b6040516102769190612c86565b60405180910390f35b6102876110d5565b6040516102949190612aaa565b60405180910390f35b6102a561110e565b6040516102b29190612b70565b60405180910390f35b6102c3611134565b6040516102d09190612aaa565b60405180910390f35b6102f360048036038101906102ee9190612ccd565b6111c6565b005b61030f600480360381019061030a9190612d72565b6112c3565b005b61032b60048036038101906103269190612b02565b61131a565b6040516103389190612aaa565b60405180910390f35b61035b60048036038101906103569190612b02565b61140a565b6040516103689190612aaa565b60405180910390f35b61038b60048036038101906103869190612e50565b6114af565b005b6103a760048036038101906103a29190612ec4565b6115d6565b6040516103b491906129f6565b60405180910390f35b6103d760048036038101906103d29190612c4a565b61166a565b005b6103e161189c565b6040516103ee9190612aaa565b60405180910390f35b6000806000837bffffffffffffffffffffffffffffffffffffffffffffffffffffffff19167bffffffffffffffffffffffffffffffffffffffffffffffffffffffff1916815260200190815260200160002060009054906101000a900460ff169050919050565b60606005805461046d90612f33565b80601f016020809104026020016040519081016040528092919081815260200182805461049990612f33565b80156104e65780601f106104bb576101008083540402835291602001916104e6565b820191906000526020600020905b8154815290600101906020018083116104c957829003601f168201915b5050505050905090565b600081600073ffffffffffffffffffffffffffffffffffffffff166001600083815260200190815260200160002060009054906101000a900473ffffffffffffffffffffffffffffffffffffffff1673ffffffffffffffffffffffffffffffffffffffff1614156040518060400160405280600681526020017f3030333030320000000000000000000000000000000000000000000000000000815250906105ce576040517f08c379a00000000000000000000000000000000000000000000000000000000081526004016105c59190612aaa565b60405180910390fd5b506002600084815260200190815260200160002060009054906101000a900473ffffffffffffffffffffffffffffffffffffffff16915050919050565b8060006001600083815260200190815260200160002060009054906101000a900473ffffffffffffffffffffffffffffffffffffffff1690503373ffffffffffffffffffffffffffffffffffffffff168173ffffffffffffffffffffffffffffffffffffffff1614806107045750600460008273ffffffffffffffffffffffffffffffffffffffff1673ffffffffffffffffffffffffffffffffffffffff16815260200190815260200160002060003373ffffffffffffffffffffffffffffffffffffffff1673ffffffffffffffffffffffffffffffffffffffff16815260200190815260200160002060009054906101000a900460ff165b6040518060400160405280600681526020017f30303330303300000000000000000000000000000000000000000000000000008152509061077b576040517f08c379a00000000000000000000000000000000000000000000000000000000081526004016107729190612aaa565b60405180910390fd5b5082600073ffffffffffffffffffffffffffffffffffffffff166001600083815260200190815260200160002060009054906101000a900473ffffffffffffffffffffffffffffffffffffffff1673ffffffffffffffffffffffffffffffffffffffff1614156040518060400160405280600681526020017f303033303032000000000000000000000000000000000000000000000000000081525090610858576040517f08c379a000000000000000000000000000000000000000000000000000000000815260040161084f9190612aaa565b60405180910390fd5b5060006001600086815260200190815260200160002060009054906101000a900473ffffffffffffffffffffffffffffffffffffffff1690508073ffffffffffffffffffffffffffffffffffffffff168673ffffffffffffffffffffffffffffffffffffffff1614156040518060400160405280600681526020017f303033303038000000000000000000000000000000000000000000000000000081525090610938576040517f08c379a000000000000000000000000000000000000000000000000000000000815260040161092f9190612aaa565b60405180910390fd5b50856002600087815260200190815260200160002060006101000a81548173ffffffffffffffffffffffffffffffffffffffff021916908373ffffffffffffffffffffffffffffffffffffffff160217905550848673ffffffffffffffffffffffffffffffffffffffff168273ffffffffffffffffffffffffffffffffffffffff167f8c5be1e5ebec7d5bd14f71427d1e84f3dd0314c0f7b2291e5b200ac8c7c3b92560405160405180910390a4505050505050565b8060006001600083815260200190815260200160002060009054906101000a900473ffffffffffffffffffffffffffffffffffffffff1690503373ffffffffffffffffffffffffffffffffffffffff168173ffffffffffffffffffffffffffffffffffffffff161480610abf57503373ffffffffffffffffffffffffffffffffffffffff166002600084815260200190815260200160002060009054906101000a900473ffffffffffffffffffffffffffffffffffffffff1673ffffffffffffffffffffffffffffffffffffffff16145b80610b505750600460008273ffffffffffffffffffffffffffffffffffffffff1673ffffffffffffffffffffffffffffffffffffffff16815260200190815260200160002060003373ffffffffffffffffffffffffffffffffffffffff1673ffffffffffffffffffffffffffffffffffffffff16815260200190815260200160002060009054906101000a900460ff165b6040518060400160405280600681526020017f303033303034000000000000000000000000000000000000000000000000000081525090610bc7576040517f08c379a0000000000000000000000000000000000000000000000000000000008152600401610bbe9190612aaa565b60405180910390fd5b5082600073ffffffffffffffffffffffffffffffffffffffff166001600083815260200190815260200160002060009054906101000a900473ffffffffffffffffffffffffffffffffffffffff1673ffffffffffffffffffffffffffffffffffffffff1614156040518060400160405280600681526020017f303033303032000000000000000000000000000000000000000000000000000081525090610ca4576040517f08c379a0000000000000000000000000000000000000000000000000000000008152600401610c9b9190612aaa565b60405180910390fd5b5060006001600086815260200190815260200160002060009054906101000a900473ffffffffffffffffffffffffffffffffffffffff1690508673ffffffffffffffffffffffffffffffffffffffff168173ffffffffffffffffffffffffffffffffffffffff16146040518060400160405280600681526020017f303033303037000000000000000000000000000000000000000000000000000081525090610d83576040517f08c379a0000000000000000000000000000000000000000000000000000000008152600401610d7a9190612aaa565b60405180910390fd5b50600073ffffffffffffffffffffffffffffffffffffffff168673ffffffffffffffffffffffffffffffffffffffff1614156040518060400160405280600681526020017f303033303031000000000000000000000000000000000000000000000000000081525090610e2c576040517f08c379a0000000000000000000000000000000000000000000000000000000008152600401610e239190612aaa565b60405180910390fd5b50610e3786866118d5565b50505050505050565b610e5b8383836040518060200160405280600081525061198a565b505050565b600860009054906101000a900473ffffffffffffffffffffffffffffffffffffffff1673ffffffffffffffffffffffffffffffffffffffff163373ffffffffffffffffffffffffffffffffffffffff16146040518060400160405280600681526020017f303138303031000000000000000000000000000000000000000000000000000081525090610f28576040517f08c379a0000000000000000000000000000000000000000000000000000000008152600401610f1f9190612aaa565b60405180910390fd5b50610f3281611f58565b50565b60006001600083815260200190815260200160002060009054906101000a900473ffffffffffffffffffffffffffffffffffffffff169050600073ffffffffffffffffffffffffffffffffffffffff168173ffffffffffffffffffffffffffffffffffffffff1614156040518060400160405280600681526020017f303033303032000000000000000000000000000000000000000000000000000081525090611015576040517f08c379a000000000000000000000000000000000000000000000000000000000815260040161100c9190612aaa565b60405180910390fd5b50919050565b60008073ffffffffffffffffffffffffffffffffffffffff168273ffffffffffffffffffffffffffffffffffffffff1614156040518060400160405280600681526020017f3030333030310000000000000000000000000000000000000000000000000000815250906110c4576040517f08c379a00000000000000000000000000000000000000000000000000000000081526004016110bb9190612aaa565b60405180910390fd5b506110ce82611f83565b9050919050565b6040518060400160405280600681526020017f303138303032000000000000000000000000000000000000000000000000000081525081565b600860009054906101000a900473ffffffffffffffffffffffffffffffffffffffff1681565b60606006805461114390612f33565b80601f016020809104026020016040519081016040528092919081815260200182805461116f90612f33565b80156111bc5780601f10611191576101008083540402835291602001916111bc565b820191906000526020600020905b81548152906001019060200180831161119f57829003601f168201915b5050505050905090565b80600460003373ffffffffffffffffffffffffffffffffffffffff1673ffffffffffffffffffffffffffffffffffffffff16815260200190815260200160002060008473ffffffffffffffffffffffffffffffffffffffff1673ffffffffffffffffffffffffffffffffffffffff16815260200190815260200160002060006101000a81548160ff0219169083151502179055508173ffffffffffffffffffffffffffffffffffffffff163373ffffffffffffffffffffffffffffffffffffffff167f17307eab39ab6107e8899845ad3d59bd9653f200f220920489ca2b5937696c31836040516112b791906129f6565b60405180910390a35050565b61131385858585858080601f016020809104026020016040519081016040528093929190818152602001838380828437600081840152601f19601f8201169050808301925050505050505061198a565b5050505050565b606081600073ffffffffffffffffffffffffffffffffffffffff166001600083815260200190815260200160002060009054906101000a900473ffffffffffffffffffffffffffffffffffffffff1673ffffffffffffffffffffffffffffffffffffffff1614156040518060400160405280600681526020017f3030333030320000000000000000000000000000000000000000000000000000815250906113f8576040517f08c379a00000000000000000000000000000000000000000000000000000000081526004016113ef9190612aaa565b60405180910390fd5b5061140283611fcc565b915050919050565b606060076000838152602001908152602001600020805461142a90612f33565b80601f016020809104026020016040519081016040528092919081815260200182805461145690612f33565b80156114a35780601f10611478576101008083540402835291602001916114a3565b820191906000526020600020905b81548152906001019060200180831161148657829003601f168201915b50505050509050919050565b600860009054906101000a900473ffffffffffffffffffffffffffffffffffffffff1673ffffffffffffffffffffffffffffffffffffffff163373ffffffffffffffffffffffffffffffffffffffff16146040518060400160405280600681526020017f303138303031000000000000000000000000000000000000000000000000000081525090611577576040517f08c379a000000000000000000000000000000000000000000000000000000000815260040161156e9190612aaa565b60405180910390fd5b506115828484612071565b6115d08383838080601f016020809104026020016040519081016040528093929190818152602001838380828437600081840152601f19601f8201169050808301925050505050505061225f565b50505050565b6000600460008473ffffffffffffffffffffffffffffffffffffffff1673ffffffffffffffffffffffffffffffffffffffff16815260200190815260200160002060008373ffffffffffffffffffffffffffffffffffffffff1673ffffffffffffffffffffffffffffffffffffffff16815260200190815260200160002060009054906101000a900460ff16905092915050565b600860009054906101000a900473ffffffffffffffffffffffffffffffffffffffff1673ffffffffffffffffffffffffffffffffffffffff163373ffffffffffffffffffffffffffffffffffffffff16146040518060400160405280600681526020017f303138303031000000000000000000000000000000000000000000000000000081525090611732576040517f08c379a00000000000000000000000000000000000000000000000000000000081526004016117299190612aaa565b60405180910390fd5b50600073ffffffffffffffffffffffffffffffffffffffff168173ffffffffffffffffffffffffffffffffffffffff1614156040518060400160405280600681526020017f3031383030320000000000000000000000000000000000000000000000000000815250906117db576040517f08c379a00000000000000000000000000000000000000000000000000000000081526004016117d29190612aaa565b60405180910390fd5b508073ffffffffffffffffffffffffffffffffffffffff16600860009054906101000a900473ffffffffffffffffffffffffffffffffffffffff1673ffffffffffffffffffffffffffffffffffffffff167f8be0079c531659141344cd1fd0a4f28419497f9722a3daafe3b4186f6b6457e060405160405180910390a380600860006101000a81548173ffffffffffffffffffffffffffffffffffffffff021916908373ffffffffffffffffffffffffffffffffffffffff16021790555050565b6040518060400160405280600681526020017f303138303031000000000000000000000000000000000000000000000000000081525081565b60006001600083815260200190815260200160002060009054906101000a900473ffffffffffffffffffffffffffffffffffffffff16905061191682612369565b61192081836123a2565b61192a838361250d565b818373ffffffffffffffffffffffffffffffffffffffff168273ffffffffffffffffffffffffffffffffffffffff167fddf252ad1be2c89b69c2b068fc378daa952ba7f163c4a11628f55a4df523b3ef60405160405180910390a4505050565b8160006001600083815260200190815260200160002060009054906101000a900473ffffffffffffffffffffffffffffffffffffffff1690503373ffffffffffffffffffffffffffffffffffffffff168173ffffffffffffffffffffffffffffffffffffffff161480611a5b57503373ffffffffffffffffffffffffffffffffffffffff166002600084815260200190815260200160002060009054906101000a900473ffffffffffffffffffffffffffffffffffffffff1673ffffffffffffffffffffffffffffffffffffffff16145b80611aec5750600460008273ffffffffffffffffffffffffffffffffffffffff1673ffffffffffffffffffffffffffffffffffffffff16815260200190815260200160002060003373ffffffffffffffffffffffffffffffffffffffff1673ffffffffffffffffffffffffffffffffffffffff16815260200190815260200160002060009054906101000a900460ff165b6040518060400160405280600681526020017f303033303034000000000000000000000000000000000000000000000000000081525090611b63576040517f08c379a0000000000000000000000000000000000000000000000000000000008152600401611b5a9190612aaa565b60405180910390fd5b5083600073ffffffffffffffffffffffffffffffffffffffff166001600083815260200190815260200160002060009054906101000a900473ffffffffffffffffffffffffffffffffffffffff1673ffffffffffffffffffffffffffffffffffffffff1614156040518060400160405280600681526020017f303033303032000000000000000000000000000000000000000000000000000081525090611c40576040517f08c379a0000000000000000000000000000000000000000000000000000000008152600401611c379190612aaa565b60405180910390fd5b5060006001600087815260200190815260200160002060009054906101000a900473ffffffffffffffffffffffffffffffffffffffff1690508773ffffffffffffffffffffffffffffffffffffffff168173ffffffffffffffffffffffffffffffffffffffff16146040518060400160405280600681526020017f303033303037000000000000000000000000000000000000000000000000000081525090611d1f576040517f08c379a0000000000000000000000000000000000000000000000000000000008152600401611d169190612aaa565b60405180910390fd5b50600073ffffffffffffffffffffffffffffffffffffffff168773ffffffffffffffffffffffffffffffffffffffff1614156040518060400160405280600681526020017f303033303031000000000000000000000000000000000000000000000000000081525090611dc8576040517f08c379a0000000000000000000000000000000000000000000000000000000008152600401611dbf9190612aaa565b60405180910390fd5b50611dd387876118d5565b611df28773ffffffffffffffffffffffffffffffffffffffff16612695565b15611f4e5760008773ffffffffffffffffffffffffffffffffffffffff1663150b7a02338b8a8a6040518563ffffffff1660e01b8152600401611e389493929190612fba565b602060405180830381600087803b158015611e5257600080fd5b505af1158015611e66573d6000803e3d6000fd5b505050506040513d601f19601f82011682018060405250810190611e8a919061301b565b905063150b7a0260e01b7bffffffffffffffffffffffffffffffffffffffffffffffffffffffff1916817bffffffffffffffffffffffffffffffffffffffffffffffffffffffff1916146040518060400160405280600681526020017f303033303035000000000000000000000000000000000000000000000000000081525090611f4b576040517f08c379a0000000000000000000000000000000000000000000000000000000008152600401611f429190612aaa565b60405180910390fd5b50505b5050505050505050565b611f61816126e0565b600760008281526020019081526020016000206000611f809190612869565b50565b6000600360008373ffffffffffffffffffffffffffffffffffffffff1673ffffffffffffffffffffffffffffffffffffffff168152602001908152602001600020549050919050565b6060600760008381526020019081526020016000208054611fec90612f33565b80601f016020809104026020016040519081016040528092919081815260200182805461201890612f33565b80156120655780601f1061203a57610100808354040283529160200191612065565b820191906000526020600020905b81548152906001019060200180831161204857829003601f168201915b50505050509050919050565b600073ffffffffffffffffffffffffffffffffffffffff168273ffffffffffffffffffffffffffffffffffffffff1614156040518060400160405280600681526020017f303033303031000000000000000000000000000000000000000000000000000081525090612119576040517f08c379a00000000000000000000000000000000000000000000000000000000081526004016121109190612aaa565b60405180910390fd5b50600073ffffffffffffffffffffffffffffffffffffffff166001600083815260200190815260200160002060009054906101000a900473ffffffffffffffffffffffffffffffffffffffff1673ffffffffffffffffffffffffffffffffffffffff16146040518060400160405280600681526020017f3030333030360000000000000000000000000000000000000000000000000000815250906121f4576040517f08c379a00000000000000000000000000000000000000000000000000000000081526004016121eb9190612aaa565b60405180910390fd5b506121ff828261250d565b808273ffffffffffffffffffffffffffffffffffffffff16600073ffffffffffffffffffffffffffffffffffffffff167fddf252ad1be2c89b69c2b068fc378daa952ba7f163c4a11628f55a4df523b3ef60405160405180910390a45050565b81600073ffffffffffffffffffffffffffffffffffffffff166001600083815260200190815260200160002060009054906101000a900473ffffffffffffffffffffffffffffffffffffffff1673ffffffffffffffffffffffffffffffffffffffff1614156040518060400160405280600681526020017f30303330303200000000000000000000000000000000000000000000000000008152509061233b576040517f08c379a00000000000000000000000000000000000000000000000000000000081526004016123329190612aaa565b60405180910390fd5b50816007600085815260200190815260200160002090805190602001906123639291906128a9565b50505050565b6002600082815260200190815260200160002060006101000a81549073ffffffffffffffffffffffffffffffffffffffff021916905550565b8173ffffffffffffffffffffffffffffffffffffffff166001600083815260200190815260200160002060009054906101000a900473ffffffffffffffffffffffffffffffffffffffff1673ffffffffffffffffffffffffffffffffffffffff16146040518060400160405280600681526020017f30303330303700000000000000000000000000000000000000000000000000008152509061247b576040517f08c379a00000000000000000000000000000000000000000000000000000000081526004016124729190612aaa565b60405180910390fd5b506001600360008473ffffffffffffffffffffffffffffffffffffffff1673ffffffffffffffffffffffffffffffffffffffff16815260200190815260200160002060008282546124cc9190613077565b925050819055506001600082815260200190815260200160002060006101000a81549073ffffffffffffffffffffffffffffffffffffffff02191690555050565b600073ffffffffffffffffffffffffffffffffffffffff166001600083815260200190815260200160002060009054906101000a900473ffffffffffffffffffffffffffffffffffffffff1673ffffffffffffffffffffffffffffffffffffffff16146040518060400160405280600681526020017f3030333030360000000000000000000000000000000000000000000000000000815250906125e7576040517f08c379a00000000000000000000000000000000000000000000000000000000081526004016125de9190612aaa565b60405180910390fd5b50816001600083815260200190815260200160002060006101000a81548173ffffffffffffffffffffffffffffffffffffffff021916908373ffffffffffffffffffffffffffffffffffffffff1602179055506001600360008473ffffffffffffffffffffffffffffffffffffffff1673ffffffffffffffffffffffffffffffffffffffff168152602001908152602001600020600082825461268a91906130ab565b925050819055505050565b60008060007fc5d2460186f7233c927e7db2dcc703c0e500b653ca82273b7bfad8045d85a47060001b9050833f91506000801b82141580156126d75750808214155b92505050919050565b80600073ffffffffffffffffffffffffffffffffffffffff166001600083815260200190815260200160002060009054906101000a900473ffffffffffffffffffffffffffffffffffffffff1673ffffffffffffffffffffffffffffffffffffffff1614156040518060400160405280600681526020017f3030333030320000000000000000000000000000000000000000000000000000815250906127bc576040517f08c379a00000000000000000000000000000000000000000000000000000000081526004016127b39190612aaa565b60405180910390fd5b5060006001600084815260200190815260200160002060009054906101000a900473ffffffffffffffffffffffffffffffffffffffff1690506127fe83612369565b61280881846123a2565b82600073ffffffffffffffffffffffffffffffffffffffff168273ffffffffffffffffffffffffffffffffffffffff167fddf252ad1be2c89b69c2b068fc378daa952ba7f163c4a11628f55a4df523b3ef60405160405180910390a4505050565b50805461287590612f33565b6000825580601f1061288757506128a6565b601f0160209004906000526020600020908101906128a5919061292f565b5b50565b8280546128b590612f33565b90600052602060002090601f0160209004810192826128d7576000855561291e565b82601f106128f057805160ff191683800117855561291e565b8280016001018555821561291e579182015b8281111561291d578251825591602001919060010190612902565b5b50905061292b919061292f565b5090565b5b80821115612948576000816000905550600101612930565b5090565b600080fd5b600080fd5b60007fffffffff0000000000000000000000000000000000000000000000000000000082169050919050565b61298b81612956565b811461299657600080fd5b50565b6000813590506129a881612982565b92915050565b6000602082840312156129c4576129c361294c565b5b60006129d284828501612999565b91505092915050565b60008115159050919050565b6129f0816129db565b82525050565b6000602082019050612a0b60008301846129e7565b92915050565b600081519050919050565b600082825260208201905092915050565b60005b83811015612a4b578082015181840152602081019050612a30565b83811115612a5a576000848401525b50505050565b6000601f19601f8301169050919050565b6000612a7c82612a11565b612a868185612a1c565b9350612a96818560208601612a2d565b612a9f81612a60565b840191505092915050565b60006020820190508181036000830152612ac48184612a71565b905092915050565b6000819050919050565b612adf81612acc565b8114612aea57600080fd5b50565b600081359050612afc81612ad6565b92915050565b600060208284031215612b1857612b1761294c565b5b6000612b2684828501612aed565b91505092915050565b600073ffffffffffffffffffffffffffffffffffffffff82169050919050565b6000612b5a82612b2f565b9050919050565b612b6a81612b4f565b82525050565b6000602082019050612b856000830184612b61565b92915050565b612b9481612b4f565b8114612b9f57600080fd5b50565b600081359050612bb181612b8b565b92915050565b60008060408385031215612bce57612bcd61294c565b5b6000612bdc85828601612ba2565b9250506020612bed85828601612aed565b9150509250929050565b600080600060608486031215612c1057612c0f61294c565b5b6000612c1e86828701612ba2565b9350506020612c2f86828701612ba2565b9250506040612c4086828701612aed565b9150509250925092565b600060208284031215612c6057612c5f61294c565b5b6000612c6e84828501612ba2565b91505092915050565b612c8081612acc565b82525050565b6000602082019050612c9b6000830184612c77565b92915050565b612caa816129db565b8114612cb557600080fd5b50565b600081359050612cc781612ca1565b92915050565b60008060408385031215612ce457612ce361294c565b5b6000612cf285828601612ba2565b9250506020612d0385828601612cb8565b9150509250929050565b600080fd5b600080fd5b600080fd5b60008083601f840112612d3257612d31612d0d565b5b8235905067ffffffffffffffff811115612d4f57612d4e612d12565b5b602083019150836001820283011115612d6b57612d6a612d17565b5b9250929050565b600080600080600060808688031215612d8e57612d8d61294c565b5b6000612d9c88828901612ba2565b9550506020612dad88828901612ba2565b9450506040612dbe88828901612aed565b935050606086013567ffffffffffffffff811115612ddf57612dde612951565b5b612deb88828901612d1c565b92509250509295509295909350565b60008083601f840112612e1057612e0f612d0d565b5b8235905067ffffffffffffffff811115612e2d57612e2c612d12565b5b602083019150836001820283011115612e4957612e48612d17565b5b9250929050565b60008060008060608587031215612e6a57612e6961294c565b5b6000612e7887828801612ba2565b9450506020612e8987828801612aed565b935050604085013567ffffffffffffffff811115612eaa57612ea9612951565b5b612eb687828801612dfa565b925092505092959194509250565b60008060408385031215612edb57612eda61294c565b5b6000612ee985828601612ba2565b9250506020612efa85828601612ba2565b9150509250929050565b7f4e487b7100000000000000000000000000000000000000000000000000000000600052602260045260246000fd5b60006002820490506001821680612f4b57607f821691505b60208210811415612f5f57612f5e612f04565b5b50919050565b600081519050919050565b600082825260208201905092915050565b6000612f8c82612f65565b612f968185612f70565b9350612fa6818560208601612a2d565b612faf81612a60565b840191505092915050565b6000608082019050612fcf6000830187612b61565b612fdc6020830186612b61565b612fe96040830185612c77565b8181036060830152612ffb8184612f81565b905095945050505050565b60008151905061301581612982565b92915050565b6000602082840312156130315761303061294c565b5b600061303f84828501613006565b91505092915050565b7f4e487b7100000000000000000000000000000000000000000000000000000000600052601160045260246000fd5b600061308282612acc565b915061308d83612acc565b9250828210156130a05761309f613048565b5b828203905092915050565b60006130b682612acc565b91506130c183612acc565b9250827fffffffffffffffffffffffffffffffffffffffffffffffffffffffffffffffff038211156130f6576130f5613048565b5b82820190509291505056fea264697066735822122047bb3daac38a0246d69b3488b100f3a327684346720fbf1d2a68fd28f7d0456c64736f6c63430008090033",
  "linkReferences": {},
  "deployedLinkReferences": {}
}