{
  "_format": "hh-sol-artifact-1",
  "contractName": "NFTokenMetadataEnumerableMock",
  "sourceName": "src/contracts/mocks/nf-token-metadata-enumerable-mock.sol",
  "abi": [
    {
      "inputs": [
        {
          "internalType": "string",
          "name": "_name",
          "type": "string"
        },
        {
          "internalType": "string",
          "name": "_symbol",
          "type": "string"
        }
      ],
      "stateMutability": "nonpayable",
      "type": "constructor"
    },
    {
      "anonymous": false,
      "inputs": [
        {
          "indexed": true,
          "internalType": "address",
          "name": "_owner",
          "type": "address"
        },
        {
          "indexed": true,
          "internalType": "address",
          "name": "_approved",
          "type": "address"
        },
        {
          "indexed": true,
          "internalType": "uint256",
          "name": "_tokenId",
          "type": "uint256"
        }
      ],
      "name": "Approval",
      "type": "event"
    },
    {
      "anonymous": false,
      "inputs": [
        {
          "indexed": true,
          "internalType": "address",
          "name": "_owner",
          "type": "address"
        },
        {
          "indexed": true,
          "internalType": "address",
          "name": "_operator",
          "type": "address"
        },
        {
          "indexed": false,
          "internalType": "bool",
          "name": "_approved",
          "type": "bool"
        }
      ],
      "name": "ApprovalForAll",
      "type": "event"
    },
    {
      "anonymous": false,
      "inputs": [
        {
          "indexed": true,
          "internalType": "address",
          "name": "previousOwner",
          "type": "address"
        },
        {
          "indexed": true,
          "internalType": "address",
          "name": "newOwner",
          "type": "address"
        }
      ],
      "name": "OwnershipTransferred",
      "type": "event"
    },
    {
      "anonymous": false,
      "inputs": [
        {
          "indexed": true,
          "internalType": "address",
          "name": "_from",
          "type": "address"
        },
        {
          "indexed": true,
          "internalType": "address",
          "name": "_to",
          "type": "address"
        },
        {
          "indexed": true,
          "internalType": "uint256",
          "name": "_tokenId",
          "type": "uint256"
        }
      ],
      "name": "Transfer",
      "type": "event"
    },
    {
      "inputs": [],
      "name": "CANNOT_TRANSFER_TO_ZERO_ADDRESS",
      "outputs": [
        {
          "internalType": "string",
          "name": "",
          "type": "string"
        }
      ],
      "stateMutability": "view",
      "type": "function"
    },
    {
      "inputs": [],
      "name": "NOT_CURRENT_OWNER",
      "outputs": [
        {
          "internalType": "string",
          "name": "",
          "type": "string"
        }
      ],
      "stateMutability": "view",
      "type": "function"
    },
    {
      "inputs": [
        {
          "internalType": "address",
          "name": "_approved",
          "type": "address"
        },
        {
          "internalType": "uint256",
          "name": "_tokenId",
          "type": "uint256"
        }
      ],
      "name": "approve",
      "outputs": [],
      "stateMutability": "nonpayable",
      "type": "function"
    },
    {
      "inputs": [
        {
          "internalType": "address",
          "name": "_owner",
          "type": "address"
        }
      ],
      "name": "balanceOf",
      "outputs": [
        {
          "internalType": "uint256",
          "name": "",
          "type": "uint256"
        }
      ],
      "stateMutability": "view",
      "type": "function"
    },
    {
      "inputs": [
        {
          "internalType": "uint256",
          "name": "_tokenId",
          "type": "uint256"
        }
      ],
      "name": "burn",
      "outputs": [],
      "stateMutability": "nonpayable",
      "type": "function"
    },
    {
      "inputs": [
        {
          "internalType": "uint256",
          "name": "_tokenId",
          "type": "uint256"
        }
      ],
      "name": "getApproved",
      "outputs": [
        {
          "internalType": "address",
          "name": "",
          "type": "address"
        }
      ],
      "stateMutability": "view",
      "type": "function"
    },
    {
      "inputs": [
        {
          "internalType": "address",
          "name": "_owner",
          "type": "address"
        },
        {
          "internalType": "address",
          "name": "_operator",
          "type": "address"
        }
      ],
      "name": "isApprovedForAll",
      "outputs": [
        {
          "internalType": "bool",
          "name": "",
          "type": "bool"
        }
      ],
      "stateMutability": "view",
      "type": "function"
    },
    {
      "inputs": [
        {
          "internalType": "address",
          "name": "_to",
          "type": "address"
        },
        {
          "internalType": "uint256",
          "name": "_tokenId",
          "type": "uint256"
        },
        {
          "internalType": "string",
          "name": "_uri",
          "type": "string"
        }
      ],
      "name": "mint",
      "outputs": [],
      "stateMutability": "nonpayable",
      "type": "function"
    },
    {
      "inputs": [],
      "name": "name",
      "outputs": [
        {
          "internalType": "string",
          "name": "_name",
          "type": "string"
        }
      ],
      "stateMutability": "view",
      "type": "function"
    },
    {
      "inputs": [],
      "name": "owner",
      "outputs": [
        {
          "internalType": "address",
          "name": "",
          "type": "address"
        }
      ],
      "stateMutability": "view",
      "type": "function"
    },
    {
      "inputs": [
        {
          "internalType": "uint256",
          "name": "_tokenId",
          "type": "uint256"
        }
      ],
      "name": "ownerOf",
      "outputs": [
        {
          "internalType": "address",
          "name": "_owner",
          "type": "address"
        }
      ],
      "stateMutability": "view",
      "type": "function"
    },
    {
      "inputs": [
        {
          "internalType": "address",
          "name": "_from",
          "type": "address"
        },
        {
          "internalType": "address",
          "name": "_to",
          "type": "address"
        },
        {
          "internalType": "uint256",
          "name": "_tokenId",
          "type": "uint256"
        }
      ],
      "name": "safeTransferFrom",
      "outputs": [],
      "stateMutability": "nonpayable",
      "type": "function"
    },
    {
      "inputs": [
        {
          "internalType": "address",
          "name": "_from",
          "type": "address"
        },
        {
          "internalType": "address",
          "name": "_to",
          "type": "address"
        },
        {
          "internalType": "uint256",
          "name": "_tokenId",
          "type": "uint256"
        },
        {
          "internalType": "bytes",
          "name": "_data",
          "type": "bytes"
        }
      ],
      "name": "safeTransferFrom",
      "outputs": [],
      "stateMutability": "nonpayable",
      "type": "function"
    },
    {
      "inputs": [
        {
          "internalType": "address",
          "name": "_operator",
          "type": "address"
        },
        {
          "internalType": "bool",
          "name": "_approved",
          "type": "bool"
        }
      ],
      "name": "setApprovalForAll",
      "outputs": [],
      "stateMutability": "nonpayable",
      "type": "function"
    },
    {
      "inputs": [
        {
          "internalType": "bytes4",
          "name": "_interfaceID",
          "type": "bytes4"
        }
      ],
      "name": "supportsInterface",
      "outputs": [
        {
          "internalType": "bool",
          "name": "",
          "type": "bool"
        }
      ],
      "stateMutability": "view",
      "type": "function"
    },
    {
      "inputs": [],
      "name": "symbol",
      "outputs": [
        {
          "internalType": "string",
          "name": "_symbol",
          "type": "string"
        }
      ],
      "stateMutability": "view",
      "type": "function"
    },
    {
      "inputs": [
        {
          "internalType": "uint256",
          "name": "_index",
          "type": "uint256"
        }
      ],
      "name": "tokenByIndex",
      "outputs": [
        {
          "internalType": "uint256",
          "name": "",
          "type": "uint256"
        }
      ],
      "stateMutability": "view",
      "type": "function"
    },
    {
      "inputs": [
        {
          "internalType": "address",
          "name": "_owner",
          "type": "address"
        },
        {
          "internalType": "uint256",
          "name": "_index",
          "type": "uint256"
        }
      ],
      "name": "tokenOfOwnerByIndex",
      "outputs": [
        {
          "internalType": "uint256",
          "name": "",
          "type": "uint256"
        }
      ],
      "stateMutability": "view",
      "type": "function"
    },
    {
      "inputs": [
        {
          "internalType": "uint256",
          "name": "_tokenId",
          "type": "uint256"
        }
      ],
      "name": "tokenURI",
      "outputs": [
        {
          "internalType": "string",
          "name": "",
          "type": "string"
        }
      ],
      "stateMutability": "view",
      "type": "function"
    },
    {
      "inputs": [],
      "name": "totalSupply",
      "outputs": [
        {
          "internalType": "uint256",
          "name": "",
          "type": "uint256"
        }
      ],
      "stateMutability": "view",
      "type": "function"
    },
    {
      "inputs": [
        {
          "internalType": "address",
          "name": "_from",
          "type": "address"
        },
        {
          "internalType": "address",
          "name": "_to",
          "type": "address"
        },
        {
          "internalType": "uint256",
          "name": "_tokenId",
          "type": "uint256"
        }
      ],
      "name": "transferFrom",
      "outputs": [],
      "stateMutability": "nonpayable",
      "type": "function"
    },
    {
      "inputs": [
        {
          "internalType": "address",
          "name": "_newOwner",
          "type": "address"
        }
      ],
      "name": "transferOwnership",
      "outputs": [],
      "stateMutability": "nonpayable",
      "type": "function"
    }
  ],
  "bytecode": "0x60806040523480156200001157600080fd5b5060405162003b5138038062003b51833981810160405281019062000037919062000443565b60016000806301ffc9a760e01b7bffffffffffffffffffffffffffffffffffffffffffffffffffffffff1916815260200190815260200160002060006101000a81548160ff02191690831515021790555060016000806380ac58cd60e01b7bffffffffffffffffffffffffffffffffffffffffffffffffffffffff1916815260200190815260200160002060006101000a81548160ff021916908315150217905550600160008063780e9d6360e01b7bffffffffffffffffffffffffffffffffffffffffffffffffffffffff1916815260200190815260200160002060006101000a81548160ff0219169083151502179055506001600080635b5e139f60e01b7bffffffffffffffffffffffffffffffffffffffffffffffffffffffff1916815260200190815260200160002060006101000a81548160ff02191690831515021790555033600c60006101000a81548173ffffffffffffffffffffffffffffffffffffffff021916908373ffffffffffffffffffffffffffffffffffffffff1602179055508160099080519060200190620001d4929190620001f6565b5080600a9080519060200190620001ed929190620001f6565b5050506200052d565b8280546200020490620004f7565b90600052602060002090601f01602090048101928262000228576000855562000274565b82601f106200024357805160ff191683800117855562000274565b8280016001018555821562000274579182015b828111156200027357825182559160200191906001019062000256565b5b50905062000283919062000287565b5090565b5b80821115620002a257600081600090555060010162000288565b5090565b6000604051905090565b600080fd5b600080fd5b600080fd5b600080fd5b6000601f19601f8301169050919050565b7f4e487b7100000000000000000000000000000000000000000000000000000000600052604160045260246000fd5b6200030f82620002c4565b810181811067ffffffffffffffff82111715620003315762000330620002d5565b5b80604052505050565b600062000346620002a6565b905062000354828262000304565b919050565b600067ffffffffffffffff821115620003775762000376620002d5565b5b6200038282620002c4565b9050602081019050919050565b60005b83811015620003af57808201518184015260208101905062000392565b83811115620003bf576000848401525b50505050565b6000620003dc620003d68462000359565b6200033a565b905082815260208101848484011115620003fb57620003fa620002bf565b5b620004088482856200038f565b509392505050565b600082601f830112620004285762000427620002ba565b5b81516200043a848260208601620003c5565b91505092915050565b600080604083850312156200045d576200045c620002b0565b5b600083015167ffffffffffffffff8111156200047e576200047d620002b5565b5b6200048c8582860162000410565b925050602083015167ffffffffffffffff811115620004b057620004af620002b5565b5b620004be8582860162000410565b9150509250929050565b7f4e487b7100000000000000000000000000000000000000000000000000000000600052602260045260246000fd5b600060028204905060018216806200051057607f821691505b60208210811415620005275762000526620004c8565b5b50919050565b613614806200053d6000396000f3fe608060405234801561001057600080fd5b50600436106101425760003560e01c806370a08231116100b8578063b88d4fde1161007c578063b88d4fde14610389578063c87b56dd146103a5578063d3fc9864146103d5578063e985e9c5146103f1578063f2fde38b14610421578063f3fe3bc31461043d57610142565b806370a08231146102e3578063860d248a146103135780638da5cb5b1461033157806395d89b411461034f578063a22cb4651461036d57610142565b806323b872dd1161010a57806323b872dd146101ff5780632f745c591461021b57806342842e0e1461024b57806342966c68146102675780634f6ccce7146102835780636352211e146102b357610142565b806301ffc9a71461014757806306fdde0314610177578063081812fc14610195578063095ea7b3146101c557806318160ddd146101e1575b600080fd5b610161600480360381019061015c9190612e83565b61045b565b60405161016e9190612ecb565b60405180910390f35b61017f6104c2565b60405161018c9190612f7f565b60405180910390f35b6101af60048036038101906101aa9190612fd7565b610554565b6040516101bc9190613045565b60405180910390f35b6101df60048036038101906101da919061308c565b61066f565b005b6101e9610a52565b6040516101f691906130db565b60405180910390f35b610219600480360381019061021491906130f6565b610a5f565b005b6102356004803603810190610230919061308c565b610eb1565b60405161024291906130db565b60405180910390f35b610265600480360381019061026091906130f6565b610fd4565b005b610281600480360381019061027c9190612fd7565b610ff4565b005b61029d60048036038101906102989190612fd7565b6110c9565b6040516102aa91906130db565b60405180910390f35b6102cd60048036038101906102c89190612fd7565b611171565b6040516102da9190613045565b60405180910390f35b6102fd60048036038101906102f89190613149565b611257565b60405161030a91906130db565b60405180910390f35b61031b611311565b6040516103289190612f7f565b60405180910390f35b61033961134a565b6040516103469190613045565b60405180910390f35b610357611370565b6040516103649190612f7f565b60405180910390f35b610387600480360381019061038291906131a2565b611402565b005b6103a3600480360381019061039e9190613247565b6114ff565b005b6103bf60048036038101906103ba9190612fd7565b611556565b6040516103cc9190612f7f565b60405180910390f35b6103ef60048036038101906103ea9190613325565b611646565b005b61040b60048036038101906104069190613399565b61176d565b6040516104189190612ecb565b60405180910390f35b61043b60048036038101906104369190613149565b611801565b005b610445611a33565b6040516104529190612f7f565b60405180910390f35b6000806000837bffffffffffffffffffffffffffffffffffffffffffffffffffffffff19167bffffffffffffffffffffffffffffffffffffffffffffffffffffffff1916815260200190815260200160002060009054906101000a900460ff169050919050565b6060600980546104d190613408565b80601f01602080910402602001604051908101604052809291908181526020018280546104fd90613408565b801561054a5780601f1061051f5761010080835404028352916020019161054a565b820191906000526020600020905b81548152906001019060200180831161052d57829003601f168201915b5050505050905090565b600081600073ffffffffffffffffffffffffffffffffffffffff166001600083815260200190815260200160002060009054906101000a900473ffffffffffffffffffffffffffffffffffffffff1673ffffffffffffffffffffffffffffffffffffffff1614156040518060400160405280600681526020017f303033303032000000000000000000000000000000000000000000000000000081525090610632576040517f08c379a00000000000000000000000000000000000000000000000000000000081526004016106299190612f7f565b60405180910390fd5b506002600084815260200190815260200160002060009054906101000a900473ffffffffffffffffffffffffffffffffffffffff16915050919050565b8060006001600083815260200190815260200160002060009054906101000a900473ffffffffffffffffffffffffffffffffffffffff1690503373ffffffffffffffffffffffffffffffffffffffff168173ffffffffffffffffffffffffffffffffffffffff1614806107685750600460008273ffffffffffffffffffffffffffffffffffffffff1673ffffffffffffffffffffffffffffffffffffffff16815260200190815260200160002060003373ffffffffffffffffffffffffffffffffffffffff1673ffffffffffffffffffffffffffffffffffffffff16815260200190815260200160002060009054906101000a900460ff165b6040518060400160405280600681526020017f3030333030330000000000000000000000000000000000000000000000000000815250906107df576040517f08c379a00000000000000000000000000000000000000000000000000000000081526004016107d69190612f7f565b60405180910390fd5b5082600073ffffffffffffffffffffffffffffffffffffffff166001600083815260200190815260200160002060009054906101000a900473ffffffffffffffffffffffffffffffffffffffff1673ffffffffffffffffffffffffffffffffffffffff1614156040518060400160405280600681526020017f3030333030320000000000000000000000000000000000000000000000000000815250906108bc576040517f08c379a00000000000000000000000000000000000000000000000000000000081526004016108b39190612f7f565b60405180910390fd5b5060006001600086815260200190815260200160002060009054906101000a900473ffffffffffffffffffffffffffffffffffffffff1690508073ffffffffffffffffffffffffffffffffffffffff168673ffffffffffffffffffffffffffffffffffffffff1614156040518060400160405280600681526020017f30303330303800000000000000000000000000000000000000000000000000008152509061099c576040517f08c379a00000000000000000000000000000000000000000000000000000000081526004016109939190612f7f565b60405180910390fd5b50856002600087815260200190815260200160002060006101000a81548173ffffffffffffffffffffffffffffffffffffffff021916908373ffffffffffffffffffffffffffffffffffffffff160217905550848673ffffffffffffffffffffffffffffffffffffffff168273ffffffffffffffffffffffffffffffffffffffff167f8c5be1e5ebec7d5bd14f71427d1e84f3dd0314c0f7b2291e5b200ac8c7c3b92560405160405180910390a4505050505050565b6000600580549050905090565b8060006001600083815260200190815260200160002060009054906101000a900473ffffffffffffffffffffffffffffffffffffffff1690503373ffffffffffffffffffffffffffffffffffffffff168173ffffffffffffffffffffffffffffffffffffffff161480610b3057503373ffffffffffffffffffffffffffffffffffffffff166002600084815260200190815260200160002060009054906101000a900473ffffffffffffffffffffffffffffffffffffffff1673ffffffffffffffffffffffffffffffffffffffff16145b80610bc15750600460008273ffffffffffffffffffffffffffffffffffffffff1673ffffffffffffffffffffffffffffffffffffffff16815260200190815260200160002060003373ffffffffffffffffffffffffffffffffffffffff1673ffffffffffffffffffffffffffffffffffffffff16815260200190815260200160002060009054906101000a900460ff165b6040518060400160405280600681526020017f303033303034000000000000000000000000000000000000000000000000000081525090610c38576040517f08c379a0000000000000000000000000000000000000000000000000000000008152600401610c2f9190612f7f565b60405180910390fd5b5082600073ffffffffffffffffffffffffffffffffffffffff166001600083815260200190815260200160002060009054906101000a900473ffffffffffffffffffffffffffffffffffffffff1673ffffffffffffffffffffffffffffffffffffffff1614156040518060400160405280600681526020017f303033303032000000000000000000000000000000000000000000000000000081525090610d15576040517f08c379a0000000000000000000000000000000000000000000000000000000008152600401610d0c9190612f7f565b60405180910390fd5b5060006001600086815260200190815260200160002060009054906101000a900473ffffffffffffffffffffffffffffffffffffffff1690508673ffffffffffffffffffffffffffffffffffffffff168173ffffffffffffffffffffffffffffffffffffffff16146040518060400160405280600681526020017f303033303037000000000000000000000000000000000000000000000000000081525090610df4576040517f08c379a0000000000000000000000000000000000000000000000000000000008152600401610deb9190612f7f565b60405180910390fd5b50600073ffffffffffffffffffffffffffffffffffffffff168673ffffffffffffffffffffffffffffffffffffffff1614156040518060400160405280600681526020017f303033303031000000000000000000000000000000000000000000000000000081525090610e9d576040517f08c379a0000000000000000000000000000000000000000000000000000000008152600401610e949190612f7f565b60405180910390fd5b50610ea88686611a6c565b50505050505050565b6000600760008473ffffffffffffffffffffffffffffffffffffffff1673ffffffffffffffffffffffffffffffffffffffff1681526020019081526020016000208054905082106040518060400160405280600681526020017f303035303037000000000000000000000000000000000000000000000000000081525090610f6f576040517f08c379a0000000000000000000000000000000000000000000000000000000008152600401610f669190612f7f565b60405180910390fd5b50600760008473ffffffffffffffffffffffffffffffffffffffff1673ffffffffffffffffffffffffffffffffffffffff1681526020019081526020016000208281548110610fc157610fc061343a565b5b9060005260206000200154905092915050565b610fef83838360405180602001604052806000815250611b21565b505050565b600c60009054906101000a900473ffffffffffffffffffffffffffffffffffffffff1673ffffffffffffffffffffffffffffffffffffffff163373ffffffffffffffffffffffffffffffffffffffff16146040518060400160405280600681526020017f3031383030310000000000000000000000000000000000000000000000000000815250906110bc576040517f08c379a00000000000000000000000000000000000000000000000000000000081526004016110b39190612f7f565b60405180910390fd5b506110c6816120ef565b50565b600060058054905082106040518060400160405280600681526020017f30303530303700000000000000000000000000000000000000000000000000008152509061114a576040517f08c379a00000000000000000000000000000000000000000000000000000000081526004016111419190612f7f565b60405180910390fd5b506005828154811061115f5761115e61343a565b5b90600052602060002001549050919050565b60006001600083815260200190815260200160002060009054906101000a900473ffffffffffffffffffffffffffffffffffffffff169050600073ffffffffffffffffffffffffffffffffffffffff168173ffffffffffffffffffffffffffffffffffffffff1614156040518060400160405280600681526020017f303033303032000000000000000000000000000000000000000000000000000081525090611251576040517f08c379a00000000000000000000000000000000000000000000000000000000081526004016112489190612f7f565b60405180910390fd5b50919050565b60008073ffffffffffffffffffffffffffffffffffffffff168273ffffffffffffffffffffffffffffffffffffffff1614156040518060400160405280600681526020017f303033303031000000000000000000000000000000000000000000000000000081525090611300576040517f08c379a00000000000000000000000000000000000000000000000000000000081526004016112f79190612f7f565b60405180910390fd5b5061130a8261211a565b9050919050565b6040518060400160405280600681526020017f303138303032000000000000000000000000000000000000000000000000000081525081565b600c60009054906101000a900473ffffffffffffffffffffffffffffffffffffffff1681565b6060600a805461137f90613408565b80601f01602080910402602001604051908101604052809291908181526020018280546113ab90613408565b80156113f85780601f106113cd576101008083540402835291602001916113f8565b820191906000526020600020905b8154815290600101906020018083116113db57829003601f168201915b5050505050905090565b80600460003373ffffffffffffffffffffffffffffffffffffffff1673ffffffffffffffffffffffffffffffffffffffff16815260200190815260200160002060008473ffffffffffffffffffffffffffffffffffffffff1673ffffffffffffffffffffffffffffffffffffffff16815260200190815260200160002060006101000a81548160ff0219169083151502179055508173ffffffffffffffffffffffffffffffffffffffff163373ffffffffffffffffffffffffffffffffffffffff167f17307eab39ab6107e8899845ad3d59bd9653f200f220920489ca2b5937696c31836040516114f39190612ecb565b60405180910390a35050565b61154f85858585858080601f016020809104026020016040519081016040528093929190818152602001838380828437600081840152601f19601f82011690508083019250505050505050611b21565b5050505050565b606081600073ffffffffffffffffffffffffffffffffffffffff166001600083815260200190815260200160002060009054906101000a900473ffffffffffffffffffffffffffffffffffffffff1673ffffffffffffffffffffffffffffffffffffffff1614156040518060400160405280600681526020017f303033303032000000000000000000000000000000000000000000000000000081525090611634576040517f08c379a000000000000000000000000000000000000000000000000000000000815260040161162b9190612f7f565b60405180910390fd5b5061163e8361212c565b915050919050565b600c60009054906101000a900473ffffffffffffffffffffffffffffffffffffffff1673ffffffffffffffffffffffffffffffffffffffff163373ffffffffffffffffffffffffffffffffffffffff16146040518060400160405280600681526020017f30313830303100000000000000000000000000000000000000000000000000008152509061170e576040517f08c379a00000000000000000000000000000000000000000000000000000000081526004016117059190612f7f565b60405180910390fd5b5061171984846121d1565b6117678383838080601f016020809104026020016040519081016040528093929190818152602001838380828437600081840152601f19601f82011690508083019250505050505050612231565b50505050565b6000600460008473ffffffffffffffffffffffffffffffffffffffff1673ffffffffffffffffffffffffffffffffffffffff16815260200190815260200160002060008373ffffffffffffffffffffffffffffffffffffffff1673ffffffffffffffffffffffffffffffffffffffff16815260200190815260200160002060009054906101000a900460ff16905092915050565b600c60009054906101000a900473ffffffffffffffffffffffffffffffffffffffff1673ffffffffffffffffffffffffffffffffffffffff163373ffffffffffffffffffffffffffffffffffffffff16146040518060400160405280600681526020017f3031383030310000000000000000000000000000000000000000000000000000815250906118c9576040517f08c379a00000000000000000000000000000000000000000000000000000000081526004016118c09190612f7f565b60405180910390fd5b50600073ffffffffffffffffffffffffffffffffffffffff168173ffffffffffffffffffffffffffffffffffffffff1614156040518060400160405280600681526020017f303138303032000000000000000000000000000000000000000000000000000081525090611972576040517f08c379a00000000000000000000000000000000000000000000000000000000081526004016119699190612f7f565b60405180910390fd5b508073ffffffffffffffffffffffffffffffffffffffff16600c60009054906101000a900473ffffffffffffffffffffffffffffffffffffffff1673ffffffffffffffffffffffffffffffffffffffff167f8be0079c531659141344cd1fd0a4f28419497f9722a3daafe3b4186f6b6457e060405160405180910390a380600c60006101000a81548173ffffffffffffffffffffffffffffffffffffffff021916908373ffffffffffffffffffffffffffffffffffffffff16021790555050565b6040518060400160405280600681526020017f303138303031000000000000000000000000000000000000000000000000000081525081565b60006001600083815260200190815260200160002060009054906101000a900473ffffffffffffffffffffffffffffffffffffffff169050611aad8261233b565b611ab78183612374565b611ac18383612382565b818373ffffffffffffffffffffffffffffffffffffffff168273ffffffffffffffffffffffffffffffffffffffff167fddf252ad1be2c89b69c2b068fc378daa952ba7f163c4a11628f55a4df523b3ef60405160405180910390a4505050565b8160006001600083815260200190815260200160002060009054906101000a900473ffffffffffffffffffffffffffffffffffffffff1690503373ffffffffffffffffffffffffffffffffffffffff168173ffffffffffffffffffffffffffffffffffffffff161480611bf257503373ffffffffffffffffffffffffffffffffffffffff166002600084815260200190815260200160002060009054906101000a900473ffffffffffffffffffffffffffffffffffffffff1673ffffffffffffffffffffffffffffffffffffffff16145b80611c835750600460008273ffffffffffffffffffffffffffffffffffffffff1673ffffffffffffffffffffffffffffffffffffffff16815260200190815260200160002060003373ffffffffffffffffffffffffffffffffffffffff1673ffffffffffffffffffffffffffffffffffffffff16815260200190815260200160002060009054906101000a900460ff165b6040518060400160405280600681526020017f303033303034000000000000000000000000000000000000000000000000000081525090611cfa576040517f08c379a0000000000000000000000000000000000000000000000000000000008152600401611cf19190612f7f565b60405180910390fd5b5083600073ffffffffffffffffffffffffffffffffffffffff166001600083815260200190815260200160002060009054906101000a900473ffffffffffffffffffffffffffffffffffffffff1673ffffffffffffffffffffffffffffffffffffffff1614156040518060400160405280600681526020017f303033303032000000000000000000000000000000000000000000000000000081525090611dd7576040517f08c379a0000000000000000000000000000000000000000000000000000000008152600401611dce9190612f7f565b60405180910390fd5b5060006001600087815260200190815260200160002060009054906101000a900473ffffffffffffffffffffffffffffffffffffffff1690508773ffffffffffffffffffffffffffffffffffffffff168173ffffffffffffffffffffffffffffffffffffffff16146040518060400160405280600681526020017f303033303037000000000000000000000000000000000000000000000000000081525090611eb6576040517f08c379a0000000000000000000000000000000000000000000000000000000008152600401611ead9190612f7f565b60405180910390fd5b50600073ffffffffffffffffffffffffffffffffffffffff168773ffffffffffffffffffffffffffffffffffffffff1614156040518060400160405280600681526020017f303033303031000000000000000000000000000000000000000000000000000081525090611f5f576040517f08c379a0000000000000000000000000000000000000000000000000000000008152600401611f569190612f7f565b60405180910390fd5b50611f6a8787611a6c565b611f898773ffffffffffffffffffffffffffffffffffffffff16612390565b156120e55760008773ffffffffffffffffffffffffffffffffffffffff1663150b7a02338b8a8a6040518563ffffffff1660e01b8152600401611fcf94939291906134be565b602060405180830381600087803b158015611fe957600080fd5b505af1158015611ffd573d6000803e3d6000fd5b505050506040513d601f19601f82011682018060405250810190612021919061351f565b905063150b7a0260e01b7bffffffffffffffffffffffffffffffffffffffffffffffffffffffff1916817bffffffffffffffffffffffffffffffffffffffffffffffffffffffff1916146040518060400160405280600681526020017f3030333030350000000000000000000000000000000000000000000000000000815250906120e2576040517f08c379a00000000000000000000000000000000000000000000000000000000081526004016120d99190612f7f565b60405180910390fd5b50505b5050505050505050565b6120f8816123db565b600b600082815260200190815260200160002060006121179190612d3e565b50565b6000612125826124b7565b9050919050565b6060600b6000838152602001908152602001600020805461214c90613408565b80601f016020809104026020016040519081016040528092919081815260200182805461217890613408565b80156121c55780601f1061219a576101008083540402835291602001916121c5565b820191906000526020600020905b8154815290600101906020018083116121a857829003601f168201915b50505050509050919050565b6121db8282612503565b60058190806001815401808255809150506001900390600052602060002001600090919091909150556001600580549050612216919061357b565b60066000838152602001908152602001600020819055505050565b81600073ffffffffffffffffffffffffffffffffffffffff166001600083815260200190815260200160002060009054906101000a900473ffffffffffffffffffffffffffffffffffffffff1673ffffffffffffffffffffffffffffffffffffffff1614156040518060400160405280600681526020017f30303330303200000000000000000000000000000000000000000000000000008152509061230d576040517f08c379a00000000000000000000000000000000000000000000000000000000081526004016123049190612f7f565b60405180910390fd5b5081600b60008581526020019081526020016000209080519060200190612335929190612d7e565b50505050565b6002600082815260200190815260200160002060006101000a81549073ffffffffffffffffffffffffffffffffffffffff021916905550565b61237e82826126f1565b5050565b61238c82826129b8565b5050565b60008060007fc5d2460186f7233c927e7db2dcc703c0e500b653ca82273b7bfad8045d85a47060001b9050833f91506000801b82141580156123d25750808214155b92505050919050565b6123e481612bb5565b60006006600083815260200190815260200160002054905060006001600580549050612410919061357b565b90506000600582815481106124285761242761343a565b5b90600052602060002001549050806005848154811061244a5761244961343a565b5b9060005260206000200181905550600580548061246a576124696135af565b5b600190038181906000526020600020016000905590558260066000838152602001908152602001600020819055506000600660008681526020019081526020016000208190555050505050565b6000600760008373ffffffffffffffffffffffffffffffffffffffff1673ffffffffffffffffffffffffffffffffffffffff168152602001908152602001600020805490509050919050565b600073ffffffffffffffffffffffffffffffffffffffff168273ffffffffffffffffffffffffffffffffffffffff1614156040518060400160405280600681526020017f3030333030310000000000000000000000000000000000000000000000000000815250906125ab576040517f08c379a00000000000000000000000000000000000000000000000000000000081526004016125a29190612f7f565b60405180910390fd5b50600073ffffffffffffffffffffffffffffffffffffffff166001600083815260200190815260200160002060009054906101000a900473ffffffffffffffffffffffffffffffffffffffff1673ffffffffffffffffffffffffffffffffffffffff16146040518060400160405280600681526020017f303033303036000000000000000000000000000000000000000000000000000081525090612686576040517f08c379a000000000000000000000000000000000000000000000000000000000815260040161267d9190612f7f565b60405180910390fd5b506126918282612382565b808273ffffffffffffffffffffffffffffffffffffffff16600073ffffffffffffffffffffffffffffffffffffffff167fddf252ad1be2c89b69c2b068fc378daa952ba7f163c4a11628f55a4df523b3ef60405160405180910390a45050565b8173ffffffffffffffffffffffffffffffffffffffff166001600083815260200190815260200160002060009054906101000a900473ffffffffffffffffffffffffffffffffffffffff1673ffffffffffffffffffffffffffffffffffffffff16146040518060400160405280600681526020017f3030333030370000000000000000000000000000000000000000000000000000815250906127ca576040517f08c379a00000000000000000000000000000000000000000000000000000000081526004016127c19190612f7f565b60405180910390fd5b506001600082815260200190815260200160002060006101000a81549073ffffffffffffffffffffffffffffffffffffffff021916905560006008600083815260200190815260200160002054905060006001600760008673ffffffffffffffffffffffffffffffffffffffff1673ffffffffffffffffffffffffffffffffffffffff1681526020019081526020016000208054905061286a919061357b565b905081811461294d576000600760008673ffffffffffffffffffffffffffffffffffffffff1673ffffffffffffffffffffffffffffffffffffffff16815260200190815260200160002082815481106128c6576128c561343a565b5b9060005260206000200154905080600760008773ffffffffffffffffffffffffffffffffffffffff1673ffffffffffffffffffffffffffffffffffffffff16815260200190815260200160002084815481106129255761292461343a565b5b9060005260206000200181905550826008600083815260200190815260200160002081905550505b600760008573ffffffffffffffffffffffffffffffffffffffff1673ffffffffffffffffffffffffffffffffffffffff16815260200190815260200160002080548061299c5761299b6135af565b5b6001900381819060005260206000200160009055905550505050565b600073ffffffffffffffffffffffffffffffffffffffff166001600083815260200190815260200160002060009054906101000a900473ffffffffffffffffffffffffffffffffffffffff1673ffffffffffffffffffffffffffffffffffffffff16146040518060400160405280600681526020017f303033303036000000000000000000000000000000000000000000000000000081525090612a92576040517f08c379a0000000000000000000000000000000000000000000000000000000008152600401612a899190612f7f565b60405180910390fd5b50816001600083815260200190815260200160002060006101000a81548173ffffffffffffffffffffffffffffffffffffffff021916908373ffffffffffffffffffffffffffffffffffffffff160217905550600760008373ffffffffffffffffffffffffffffffffffffffff1673ffffffffffffffffffffffffffffffffffffffff1681526020019081526020016000208190806001815401808255809150506001900390600052602060002001600090919091909150556001600760008473ffffffffffffffffffffffffffffffffffffffff1673ffffffffffffffffffffffffffffffffffffffff16815260200190815260200160002080549050612b9a919061357b565b60086000838152602001908152602001600020819055505050565b80600073ffffffffffffffffffffffffffffffffffffffff166001600083815260200190815260200160002060009054906101000a900473ffffffffffffffffffffffffffffffffffffffff1673ffffffffffffffffffffffffffffffffffffffff1614156040518060400160405280600681526020017f303033303032000000000000000000000000000000000000000000000000000081525090612c91576040517f08c379a0000000000000000000000000000000000000000000000000000000008152600401612c889190612f7f565b60405180910390fd5b5060006001600084815260200190815260200160002060009054906101000a900473ffffffffffffffffffffffffffffffffffffffff169050612cd38361233b565b612cdd8184612374565b82600073ffffffffffffffffffffffffffffffffffffffff168273ffffffffffffffffffffffffffffffffffffffff167fddf252ad1be2c89b69c2b068fc378daa952ba7f163c4a11628f55a4df523b3ef60405160405180910390a4505050565b508054612d4a90613408565b6000825580601f10612d5c5750612d7b565b601f016020900490600052602060002090810190612d7a9190612e04565b5b50565b828054612d8a90613408565b90600052602060002090601f016020900481019282612dac5760008555612df3565b82601f10612dc557805160ff1916838001178555612df3565b82800160010185558215612df3579182015b82811115612df2578251825591602001919060010190612dd7565b5b509050612e009190612e04565b5090565b5b80821115612e1d576000816000905550600101612e05565b5090565b600080fd5b600080fd5b60007fffffffff0000000000000000000000000000000000000000000000000000000082169050919050565b612e6081612e2b565b8114612e6b57600080fd5b50565b600081359050612e7d81612e57565b92915050565b600060208284031215612e9957612e98612e21565b5b6000612ea784828501612e6e565b91505092915050565b60008115159050919050565b612ec581612eb0565b82525050565b6000602082019050612ee06000830184612ebc565b92915050565b600081519050919050565b600082825260208201905092915050565b60005b83811015612f20578082015181840152602081019050612f05565b83811115612f2f576000848401525b50505050565b6000601f19601f8301169050919050565b6000612f5182612ee6565b612f5b8185612ef1565b9350612f6b818560208601612f02565b612f7481612f35565b840191505092915050565b60006020820190508181036000830152612f998184612f46565b905092915050565b6000819050919050565b612fb481612fa1565b8114612fbf57600080fd5b50565b600081359050612fd181612fab565b92915050565b600060208284031215612fed57612fec612e21565b5b6000612ffb84828501612fc2565b91505092915050565b600073ffffffffffffffffffffffffffffffffffffffff82169050919050565b600061302f82613004565b9050919050565b61303f81613024565b82525050565b600060208201905061305a6000830184613036565b92915050565b61306981613024565b811461307457600080fd5b50565b60008135905061308681613060565b92915050565b600080604083850312156130a3576130a2612e21565b5b60006130b185828601613077565b92505060206130c285828601612fc2565b9150509250929050565b6130d581612fa1565b82525050565b60006020820190506130f060008301846130cc565b92915050565b60008060006060848603121561310f5761310e612e21565b5b600061311d86828701613077565b935050602061312e86828701613077565b925050604061313f86828701612fc2565b9150509250925092565b60006020828403121561315f5761315e612e21565b5b600061316d84828501613077565b91505092915050565b61317f81612eb0565b811461318a57600080fd5b50565b60008135905061319c81613176565b92915050565b600080604083850312156131b9576131b8612e21565b5b60006131c785828601613077565b92505060206131d88582860161318d565b9150509250929050565b600080fd5b600080fd5b600080fd5b60008083601f840112613207576132066131e2565b5b8235905067ffffffffffffffff811115613224576132236131e7565b5b6020830191508360018202830111156132405761323f6131ec565b5b9250929050565b60008060008060006080868803121561326357613262612e21565b5b600061327188828901613077565b955050602061328288828901613077565b945050604061329388828901612fc2565b935050606086013567ffffffffffffffff8111156132b4576132b3612e26565b5b6132c0888289016131f1565b92509250509295509295909350565b60008083601f8401126132e5576132e46131e2565b5b8235905067ffffffffffffffff811115613302576133016131e7565b5b60208301915083600182028301111561331e5761331d6131ec565b5b9250929050565b6000806000806060858703121561333f5761333e612e21565b5b600061334d87828801613077565b945050602061335e87828801612fc2565b935050604085013567ffffffffffffffff81111561337f5761337e612e26565b5b61338b878288016132cf565b925092505092959194509250565b600080604083850312156133b0576133af612e21565b5b60006133be85828601613077565b92505060206133cf85828601613077565b9150509250929050565b7f4e487b7100000000000000000000000000000000000000000000000000000000600052602260045260246000fd5b6000600282049050600182168061342057607f821691505b60208210811415613434576134336133d9565b5b50919050565b7f4e487b7100000000000000000000000000000000000000000000000000000000600052603260045260246000fd5b600081519050919050565b600082825260208201905092915050565b600061349082613469565b61349a8185613474565b93506134aa818560208601612f02565b6134b381612f35565b840191505092915050565b60006080820190506134d36000830187613036565b6134e06020830186613036565b6134ed60408301856130cc565b81810360608301526134ff8184613485565b905095945050505050565b60008151905061351981612e57565b92915050565b60006020828403121561353557613534612e21565b5b60006135438482850161350a565b91505092915050565b7f4e487b7100000000000000000000000000000000000000000000000000000000600052601160045260246000fd5b600061358682612fa1565b915061359183612fa1565b9250828210156135a4576135a361354c565b5b828203905092915050565b7f4e487b7100000000000000000000000000000000000000000000000000000000600052603160045260246000fdfea2646970667358221220be4e72a03f5018d02d6b908bf4e25ad9471f642409bf3651263dd8a80f02daee64736f6c63430008090033",
  "linkReferences": {},
  "deployedLinkReferences": {}
}