{
  "_format": "hh-sol-artifact-1",
  "contractName": "AddressUtilsMock",
  "sourceName": "src/tests/mocks/address-utils-mock.sol",
  "abi": [
    {
      "inputs": [
        {
          "internalType": "address",
          "name": "_addr",
          "type": "address"
        }
      ],
      "name": "isContract",
      "outputs": [
        {
          "internalType": "bool",
          "name": "addressCheck",
          "type": "bool"
        }
      ],
      "stateMutability": "view",
      "type": "function"
    }
  ],
  "bytecode": "0x608060405234801561001057600080fd5b506101cf806100206000396000f3fe608060405234801561001057600080fd5b506004361061002b5760003560e01c80631627905514610030575b600080fd5b61004a60048036038101906100459190610136565b610060565b604051610057919061017e565b60405180910390f35b60006100818273ffffffffffffffffffffffffffffffffffffffff16610088565b9050919050565b60008060007fc5d2460186f7233c927e7db2dcc703c0e500b653ca82273b7bfad8045d85a47060001b9050833f91506000801b82141580156100ca5750808214155b92505050919050565b600080fd5b600073ffffffffffffffffffffffffffffffffffffffff82169050919050565b6000610103826100d8565b9050919050565b610113816100f8565b811461011e57600080fd5b50565b6000813590506101308161010a565b92915050565b60006020828403121561014c5761014b6100d3565b5b600061015a84828501610121565b91505092915050565b60008115159050919050565b61017881610163565b82525050565b6000602082019050610193600083018461016f565b9291505056fea2646970667358221220f72f58c4fa196f23a8e0d1c4d8a609765ce88841cb4448ad3bca1df734a2b12d64736f6c63430008090033",
  "linkReferences": {},
  "deployedLinkReferences": {}
}